{
  "_format": "hh-sol-artifact-1",
  "contractName": "StableCoin",
  "sourceName": "contracts/StableCoin.sol",
  "abi": [
    {
      "inputs": [
        {
          "internalType": "address",
          "name": "_adminAccount",
          "type": "address"
        }
      ],
      "stateMutability": "nonpayable",
      "type": "constructor"
    },
    {
      "anonymous": false,
      "inputs": [
        {
          "indexed": true,
          "internalType": "address",
          "name": "owner",
          "type": "address"
        },
        {
          "indexed": true,
          "internalType": "address",
          "name": "spender",
          "type": "address"
        },
        {
          "indexed": false,
          "internalType": "uint256",
          "name": "value",
          "type": "uint256"
        }
      ],
      "name": "Approval",
      "type": "event"
    },
    {
      "anonymous": false,
      "inputs": [
        {
          "indexed": false,
          "internalType": "address",
          "name": "account",
          "type": "address"
        }
      ],
      "name": "Paused",
      "type": "event"
    },
    {
      "anonymous": false,
      "inputs": [
        {
          "indexed": true,
          "internalType": "bytes32",
          "name": "role",
          "type": "bytes32"
        },
        {
          "indexed": true,
          "internalType": "bytes32",
          "name": "previousAdminRole",
          "type": "bytes32"
        },
        {
          "indexed": true,
          "internalType": "bytes32",
          "name": "newAdminRole",
          "type": "bytes32"
        }
      ],
      "name": "RoleAdminChanged",
      "type": "event"
    },
    {
      "anonymous": false,
      "inputs": [
        {
          "indexed": true,
          "internalType": "bytes32",
          "name": "role",
          "type": "bytes32"
        },
        {
          "indexed": true,
          "internalType": "address",
          "name": "account",
          "type": "address"
        },
        {
          "indexed": true,
          "internalType": "address",
          "name": "sender",
          "type": "address"
        }
      ],
      "name": "RoleGranted",
      "type": "event"
    },
    {
      "anonymous": false,
      "inputs": [
        {
          "indexed": true,
          "internalType": "bytes32",
          "name": "role",
          "type": "bytes32"
        },
        {
          "indexed": true,
          "internalType": "address",
          "name": "account",
          "type": "address"
        },
        {
          "indexed": true,
          "internalType": "address",
          "name": "sender",
          "type": "address"
        }
      ],
      "name": "RoleRevoked",
      "type": "event"
    },
    {
      "anonymous": false,
      "inputs": [
        {
          "indexed": true,
          "internalType": "address",
          "name": "from",
          "type": "address"
        },
        {
          "indexed": true,
          "internalType": "address",
          "name": "to",
          "type": "address"
        },
        {
          "indexed": false,
          "internalType": "uint256",
          "name": "value",
          "type": "uint256"
        }
      ],
      "name": "Transfer",
      "type": "event"
    },
    {
      "anonymous": false,
      "inputs": [
        {
          "indexed": false,
          "internalType": "address",
          "name": "account",
          "type": "address"
        }
      ],
      "name": "Unpaused",
      "type": "event"
    },
    {
      "inputs": [],
      "name": "DEFAULT_ADMIN_ROLE",
      "outputs": [
        {
          "internalType": "bytes32",
          "name": "",
          "type": "bytes32"
        }
      ],
      "stateMutability": "view",
      "type": "function"
    },
    {
      "inputs": [],
      "name": "MINTER_ROLE",
      "outputs": [
        {
          "internalType": "bytes32",
          "name": "",
          "type": "bytes32"
        }
      ],
      "stateMutability": "view",
      "type": "function"
    },
    {
      "inputs": [],
      "name": "PAUSER_ROLE",
      "outputs": [
        {
          "internalType": "bytes32",
          "name": "",
          "type": "bytes32"
        }
      ],
      "stateMutability": "view",
      "type": "function"
    },
    {
      "inputs": [
        {
          "internalType": "address",
          "name": "owner",
          "type": "address"
        },
        {
          "internalType": "address",
          "name": "spender",
          "type": "address"
        }
      ],
      "name": "allowance",
      "outputs": [
        {
          "internalType": "uint256",
          "name": "",
          "type": "uint256"
        }
      ],
      "stateMutability": "view",
      "type": "function"
    },
    {
      "inputs": [
        {
          "internalType": "address",
          "name": "spender",
          "type": "address"
        },
        {
          "internalType": "uint256",
          "name": "amount",
          "type": "uint256"
        }
      ],
      "name": "approve",
      "outputs": [
        {
          "internalType": "bool",
          "name": "",
          "type": "bool"
        }
      ],
      "stateMutability": "nonpayable",
      "type": "function"
    },
    {
      "inputs": [
        {
          "internalType": "address",
          "name": "account",
          "type": "address"
        }
      ],
      "name": "balanceOf",
      "outputs": [
        {
          "internalType": "uint256",
          "name": "",
          "type": "uint256"
        }
      ],
      "stateMutability": "view",
      "type": "function"
    },
    {
      "inputs": [
        {
          "internalType": "uint256",
          "name": "amount",
          "type": "uint256"
        }
      ],
      "name": "burn",
      "outputs": [],
      "stateMutability": "nonpayable",
      "type": "function"
    },
    {
      "inputs": [
        {
          "internalType": "address",
          "name": "account",
          "type": "address"
        },
        {
          "internalType": "uint256",
          "name": "amount",
          "type": "uint256"
        }
      ],
      "name": "burnBank",
      "outputs": [],
      "stateMutability": "nonpayable",
      "type": "function"
    },
    {
      "inputs": [
        {
          "internalType": "address",
          "name": "account",
          "type": "address"
        },
        {
          "internalType": "uint256",
          "name": "amount",
          "type": "uint256"
        }
      ],
      "name": "burnFrom",
      "outputs": [],
      "stateMutability": "nonpayable",
      "type": "function"
    },
    {
      "inputs": [],
      "name": "decimals",
      "outputs": [
        {
          "internalType": "uint8",
          "name": "",
          "type": "uint8"
        }
      ],
      "stateMutability": "view",
      "type": "function"
    },
    {
      "inputs": [
        {
          "internalType": "address",
          "name": "spender",
          "type": "address"
        },
        {
          "internalType": "uint256",
          "name": "subtractedValue",
          "type": "uint256"
        }
      ],
      "name": "decreaseAllowance",
      "outputs": [
        {
          "internalType": "bool",
          "name": "",
          "type": "bool"
        }
      ],
      "stateMutability": "nonpayable",
      "type": "function"
    },
    {
      "inputs": [
        {
          "internalType": "bytes32",
          "name": "role",
          "type": "bytes32"
        }
      ],
      "name": "getRoleAdmin",
      "outputs": [
        {
          "internalType": "bytes32",
          "name": "",
          "type": "bytes32"
        }
      ],
      "stateMutability": "view",
      "type": "function"
    },
    {
      "inputs": [
        {
          "internalType": "bytes32",
          "name": "role",
          "type": "bytes32"
        },
        {
          "internalType": "uint256",
          "name": "index",
          "type": "uint256"
        }
      ],
      "name": "getRoleMember",
      "outputs": [
        {
          "internalType": "address",
          "name": "",
          "type": "address"
        }
      ],
      "stateMutability": "view",
      "type": "function"
    },
    {
      "inputs": [
        {
          "internalType": "bytes32",
          "name": "role",
          "type": "bytes32"
        }
      ],
      "name": "getRoleMemberCount",
      "outputs": [
        {
          "internalType": "uint256",
          "name": "",
          "type": "uint256"
        }
      ],
      "stateMutability": "view",
      "type": "function"
    },
    {
      "inputs": [
        {
          "internalType": "bytes32",
          "name": "role",
          "type": "bytes32"
        },
        {
          "internalType": "address",
          "name": "account",
          "type": "address"
        }
      ],
      "name": "grantRole",
      "outputs": [],
      "stateMutability": "nonpayable",
      "type": "function"
    },
    {
      "inputs": [
        {
          "internalType": "bytes32",
          "name": "role",
          "type": "bytes32"
        },
        {
          "internalType": "address",
          "name": "account",
          "type": "address"
        }
      ],
      "name": "hasRole",
      "outputs": [
        {
          "internalType": "bool",
          "name": "",
          "type": "bool"
        }
      ],
      "stateMutability": "view",
      "type": "function"
    },
    {
      "inputs": [
        {
          "internalType": "address",
          "name": "spender",
          "type": "address"
        },
        {
          "internalType": "uint256",
          "name": "addedValue",
          "type": "uint256"
        }
      ],
      "name": "increaseAllowance",
      "outputs": [
        {
          "internalType": "bool",
          "name": "",
          "type": "bool"
        }
      ],
      "stateMutability": "nonpayable",
      "type": "function"
    },
    {
      "inputs": [
        {
          "internalType": "address",
          "name": "to",
          "type": "address"
        },
        {
          "internalType": "uint256",
          "name": "amount",
          "type": "uint256"
        }
      ],
      "name": "mint",
      "outputs": [],
      "stateMutability": "nonpayable",
      "type": "function"
    },
    {
      "inputs": [
        {
          "internalType": "address",
          "name": "account",
          "type": "address"
        },
        {
          "internalType": "uint256",
          "name": "amount",
          "type": "uint256"
        }
      ],
      "name": "mintBank",
      "outputs": [],
      "stateMutability": "nonpayable",
      "type": "function"
    },
    {
      "inputs": [],
      "name": "name",
      "outputs": [
        {
          "internalType": "string",
          "name": "",
          "type": "string"
        }
      ],
      "stateMutability": "view",
      "type": "function"
    },
    {
      "inputs": [],
      "name": "pause",
      "outputs": [],
      "stateMutability": "nonpayable",
      "type": "function"
    },
    {
      "inputs": [],
      "name": "paused",
      "outputs": [
        {
          "internalType": "bool",
          "name": "",
          "type": "bool"
        }
      ],
      "stateMutability": "view",
      "type": "function"
    },
    {
      "inputs": [
        {
          "internalType": "bytes32",
          "name": "role",
          "type": "bytes32"
        },
        {
          "internalType": "address",
          "name": "account",
          "type": "address"
        }
      ],
      "name": "renounceRole",
      "outputs": [],
      "stateMutability": "nonpayable",
      "type": "function"
    },
    {
      "inputs": [
        {
          "internalType": "bytes32",
          "name": "role",
          "type": "bytes32"
        },
        {
          "internalType": "address",
          "name": "account",
          "type": "address"
        }
      ],
      "name": "revokeRole",
      "outputs": [],
      "stateMutability": "nonpayable",
      "type": "function"
    },
    {
      "inputs": [
        {
          "internalType": "bytes4",
          "name": "interfaceId",
          "type": "bytes4"
        }
      ],
      "name": "supportsInterface",
      "outputs": [
        {
          "internalType": "bool",
          "name": "",
          "type": "bool"
        }
      ],
      "stateMutability": "view",
      "type": "function"
    },
    {
      "inputs": [],
      "name": "symbol",
      "outputs": [
        {
          "internalType": "string",
          "name": "",
          "type": "string"
        }
      ],
      "stateMutability": "view",
      "type": "function"
    },
    {
      "inputs": [],
      "name": "totalSupply",
      "outputs": [
        {
          "internalType": "uint256",
          "name": "",
          "type": "uint256"
        }
      ],
      "stateMutability": "view",
      "type": "function"
    },
    {
      "inputs": [
        {
          "internalType": "address",
          "name": "to",
          "type": "address"
        },
        {
          "internalType": "uint256",
          "name": "amount",
          "type": "uint256"
        }
      ],
      "name": "transfer",
      "outputs": [
        {
          "internalType": "bool",
          "name": "",
          "type": "bool"
        }
      ],
      "stateMutability": "nonpayable",
      "type": "function"
    },
    {
      "inputs": [
        {
          "internalType": "address",
          "name": "from",
          "type": "address"
        },
        {
          "internalType": "address",
          "name": "to",
          "type": "address"
        },
        {
          "internalType": "uint256",
          "name": "amount",
          "type": "uint256"
        }
      ],
      "name": "transferFrom",
      "outputs": [
        {
          "internalType": "bool",
          "name": "",
          "type": "bool"
        }
      ],
      "stateMutability": "nonpayable",
      "type": "function"
    },
    {
      "inputs": [],
      "name": "unpause",
      "outputs": [],
      "stateMutability": "nonpayable",
      "type": "function"
    }
  ],
  "bytecode": "0x608060405234801561001057600080fd5b50604051613cb5380380613cb5833981810160405281019061003291906105b1565b6040518060400160405280600a81526020017f537461626c65436f696e000000000000000000000000000000000000000000008152506040518060400160405280600281526020017f5343000000000000000000000000000000000000000000000000000000000000815250818181600590816100af919061082e565b5080600690816100bf919061082e565b5050506000600760006101000a81548160ff0219169083151502179055506100fd6000801b6100f26102d360201b60201c565b6102db60201b60201c565b61013a7f9f2df0fed2c77648de5860a4cc508cd0818c85b8b8a1ab4ceeef8d981c8956a661012f6102d360201b60201c565b6102db60201b60201c565b6101777f65d7a28e3265b37a6474929f336521b332c1681b933f6cb9f3376673440d862a61016c6102d360201b60201c565b6102db60201b60201c565b5050600073ffffffffffffffffffffffffffffffffffffffff168173ffffffffffffffffffffffffffffffffffffffff16036101e8576040517f08c379a00000000000000000000000000000000000000000000000000000000081526004016101df9061095d565b60405180910390fd5b80600760016101000a81548173ffffffffffffffffffffffffffffffffffffffff021916908373ffffffffffffffffffffffffffffffffffffffff16021790555061027b7f9f2df0fed2c77648de5860a4cc508cd0818c85b8b8a1ab4ceeef8d981c8956a6600760019054906101000a900473ffffffffffffffffffffffffffffffffffffffff166102db60201b60201c565b6102cd7f65d7a28e3265b37a6474929f336521b332c1681b933f6cb9f3376673440d862a600760019054906101000a900473ffffffffffffffffffffffffffffffffffffffff166102db60201b60201c565b5061097d565b600033905090565b6102eb82826102ef60201b60201c565b5050565b6102ff828261032960201b60201c565b610324816001600085815260200190815260200160002061041560201b90919060201c565b505050565b610339828261044b60201b60201c565b61041157600160008084815260200190815260200160002060000160008373ffffffffffffffffffffffffffffffffffffffff1673ffffffffffffffffffffffffffffffffffffffff16815260200190815260200160002060006101000a81548160ff0219169083151502179055506103b66102d360201b60201c565b73ffffffffffffffffffffffffffffffffffffffff168173ffffffffffffffffffffffffffffffffffffffff16837f2f8788117e7eff1d82e926ec794901d17c78024a50270940304540a733656f0d60405160405180910390a45b5050565b6000610443836000018373ffffffffffffffffffffffffffffffffffffffff1660001b6104b560201b60201c565b905092915050565b600080600084815260200190815260200160002060000160008373ffffffffffffffffffffffffffffffffffffffff1673ffffffffffffffffffffffffffffffffffffffff16815260200190815260200160002060009054906101000a900460ff16905092915050565b60006104c7838361052b60201b60201c565b610520578260000182908060018154018082558091505060019003906000526020600020016000909190919091505582600001805490508360010160008481526020019081526020016000208190555060019050610525565b600090505b92915050565b600080836001016000848152602001908152602001600020541415905092915050565b600080fd5b600073ffffffffffffffffffffffffffffffffffffffff82169050919050565b600061057e82610553565b9050919050565b61058e81610573565b811461059957600080fd5b50565b6000815190506105ab81610585565b92915050565b6000602082840312156105c7576105c661054e565b5b60006105d58482850161059c565b91505092915050565b600081519050919050565b7f4e487b7100000000000000000000000000000000000000000000000000000000600052604160045260246000fd5b7f4e487b7100000000000000000000000000000000000000000000000000000000600052602260045260246000fd5b6000600282049050600182168061065f57607f821691505b60208210810361067257610671610618565b5b50919050565b60008190508160005260206000209050919050565b60006020601f8301049050919050565b600082821b905092915050565b6000600883026106da7fffffffffffffffffffffffffffffffffffffffffffffffffffffffffffffffff8261069d565b6106e4868361069d565b95508019841693508086168417925050509392505050565b6000819050919050565b6000819050919050565b600061072b610726610721846106fc565b610706565b6106fc565b9050919050565b6000819050919050565b61074583610710565b61075961075182610732565b8484546106aa565b825550505050565b600090565b61076e610761565b61077981848461073c565b505050565b5b8181101561079d57610792600082610766565b60018101905061077f565b5050565b601f8211156107e2576107b381610678565b6107bc8461068d565b810160208510156107cb578190505b6107df6107d78561068d565b83018261077e565b50505b505050565b600082821c905092915050565b6000610805600019846008026107e7565b1980831691505092915050565b600061081e83836107f4565b9150826002028217905092915050565b610837826105de565b67ffffffffffffffff8111156108505761084f6105e9565b5b61085a8254610647565b6108658282856107a1565b600060209050601f8311600181146108985760008415610886578287015190505b6108908582610812565b8655506108f8565b601f1984166108a686610678565b60005b828110156108ce578489015182556001820191506020850194506020810190506108a9565b868310156108eb57848901516108e7601f8916826107f4565b8355505b6001600288020188555050505b505050505050565b600082825260208201905092915050565b7f496e76616c6964206163636f756e740000000000000000000000000000000000600082015250565b6000610947600f83610900565b915061095282610911565b602082019050919050565b600060208201905081810360008301526109768161093a565b9050919050565b6133298061098c6000396000f3fe608060405234801561001057600080fd5b50600436106101da5760003560e01c806370a0823111610104578063a457c2d7116100a2578063d547741f11610071578063d547741f1461057d578063dd62ed3e14610599578063e63ab1e9146105c9578063ffed146b146105e7576101da565b8063a457c2d7146104cf578063a9059cbb146104ff578063ca15c8731461052f578063d53913931461055f576101da565b80639010d07c116100de5780639010d07c1461043357806391d148541461046357806395d89b4114610493578063a217fddf146104b1576101da565b806370a08231146103dd57806379cc67901461040d5780638456cb5914610429576101da565b8063313ce5671161017c57806340c10f191161014b57806340c10f191461036b57806342966c68146103875780635c975abb146103a35780636f6826b3146103c1576101da565b8063313ce567146102f757806336568abe1461031557806339509351146103315780633f4ba83a14610361576101da565b806318160ddd116101b857806318160ddd1461025d57806323b872dd1461027b578063248a9ca3146102ab5780632f2ff15d146102db576101da565b806301ffc9a7146101df57806306fdde031461020f578063095ea7b31461022d575b600080fd5b6101f960048036038101906101f4919061212a565b610603565b6040516102069190612172565b60405180910390f35b61021761067d565b604051610224919061221d565b60405180910390f35b610247600480360381019061024291906122d3565b61070f565b6040516102549190612172565b60405180910390f35b610265610732565b6040516102729190612322565b60405180910390f35b6102956004803603810190610290919061233d565b61073c565b6040516102a29190612172565b60405180910390f35b6102c560048036038101906102c091906123c6565b61076b565b6040516102d29190612402565b60405180910390f35b6102f560048036038101906102f0919061241d565b61078a565b005b6102ff6107ab565b60405161030c9190612479565b60405180910390f35b61032f600480360381019061032a919061241d565b6107b4565b005b61034b600480360381019061034691906122d3565b610837565b6040516103589190612172565b60405180910390f35b61036961086e565b005b610385600480360381019061038091906122d3565b6108e8565b005b6103a1600480360381019061039c9190612494565b610966565b005b6103ab61097a565b6040516103b89190612172565b60405180910390f35b6103db60048036038101906103d691906122d3565b610991565b005b6103f760048036038101906103f291906124c1565b610a4b565b6040516104049190612322565b60405180910390f35b610427600480360381019061042291906122d3565b610a94565b005b610431610ab4565b005b61044d600480360381019061044891906124ee565b610b2e565b60405161045a919061253d565b60405180910390f35b61047d6004803603810190610478919061241d565b610b5d565b60405161048a9190612172565b60405180910390f35b61049b610bc7565b6040516104a8919061221d565b60405180910390f35b6104b9610c59565b6040516104c69190612402565b60405180910390f35b6104e960048036038101906104e491906122d3565b610c60565b6040516104f69190612172565b60405180910390f35b610519600480360381019061051491906122d3565b610cd7565b6040516105269190612172565b60405180910390f35b610549600480360381019061054491906123c6565b610cfa565b6040516105569190612322565b60405180910390f35b610567610d1e565b6040516105749190612402565b60405180910390f35b6105976004803603810190610592919061241d565b610d42565b005b6105b360048036038101906105ae9190612558565b610d63565b6040516105c09190612322565b60405180910390f35b6105d1610dea565b6040516105de9190612402565b60405180910390f35b61060160048036038101906105fc91906122d3565b610e0e565b005b60007f5a05180f000000000000000000000000000000000000000000000000000000007bffffffffffffffffffffffffffffffffffffffffffffffffffffffff1916827bffffffffffffffffffffffffffffffffffffffffffffffffffffffff19161480610676575061067582610e85565b5b9050919050565b60606005805461068c906125c7565b80601f01602080910402602001604051908101604052809291908181526020018280546106b8906125c7565b80156107055780601f106106da57610100808354040283529160200191610705565b820191906000526020600020905b8154815290600101906020018083116106e857829003601f168201915b5050505050905090565b60008061071a610eff565b9050610727818585610f07565b600191505092915050565b6000600454905090565b600080610747610eff565b90506107548582856110d0565b61075f85858561115c565b60019150509392505050565b6000806000838152602001908152602001600020600101549050919050565b6107938261076b565b61079c816113d5565b6107a683836113e9565b505050565b60006012905090565b6107bc610eff565b73ffffffffffffffffffffffffffffffffffffffff168173ffffffffffffffffffffffffffffffffffffffff1614610829576040517f08c379a00000000000000000000000000000000000000000000000000000000081526004016108209061266a565b60405180910390fd5b610833828261141d565b5050565b600080610842610eff565b90506108638185856108548589610d63565b61085e91906126b9565b610f07565b600191505092915050565b61089f7f65d7a28e3265b37a6474929f336521b332c1681b933f6cb9f3376673440d862a61089a610eff565b610b5d565b6108de576040517f08c379a00000000000000000000000000000000000000000000000000000000081526004016108d59061275f565b60405180910390fd5b6108e6611451565b565b6109197f9f2df0fed2c77648de5860a4cc508cd0818c85b8b8a1ab4ceeef8d981c8956a6610914610eff565b610b5d565b610958576040517f08c379a000000000000000000000000000000000000000000000000000000000815260040161094f906127f1565b60405180910390fd5b61096282826114b4565b5050565b610977610971610eff565b8261160b565b50565b6000600760009054906101000a900460ff16905090565b6109bb7f9f2df0fed2c77648de5860a4cc508cd0818c85b8b8a1ab4ceeef8d981c8956a633610b5d565b6109fa576040517f08c379a00000000000000000000000000000000000000000000000000000000081526004016109f19061285d565b60405180910390fd5b60008111610a3d576040517f08c379a0000000000000000000000000000000000000000000000000000000008152600401610a34906128c9565b60405180910390fd5b610a4782826114b4565b5050565b6000600260008373ffffffffffffffffffffffffffffffffffffffff1673ffffffffffffffffffffffffffffffffffffffff168152602001908152602001600020549050919050565b610aa682610aa0610eff565b836110d0565b610ab0828261160b565b5050565b610ae57f65d7a28e3265b37a6474929f336521b332c1681b933f6cb9f3376673440d862a610ae0610eff565b610b5d565b610b24576040517f08c379a0000000000000000000000000000000000000000000000000000000008152600401610b1b9061295b565b60405180910390fd5b610b2c6117da565b565b6000610b55826001600086815260200190815260200160002061183d90919063ffffffff16565b905092915050565b600080600084815260200190815260200160002060000160008373ffffffffffffffffffffffffffffffffffffffff1673ffffffffffffffffffffffffffffffffffffffff16815260200190815260200160002060009054906101000a900460ff16905092915050565b606060068054610bd6906125c7565b80601f0160208091040260200160405190810160405280929190818152602001828054610c02906125c7565b8015610c4f5780601f10610c2457610100808354040283529160200191610c4f565b820191906000526020600020905b815481529060010190602001808311610c3257829003601f168201915b5050505050905090565b6000801b81565b600080610c6b610eff565b90506000610c798286610d63565b905083811015610cbe576040517f08c379a0000000000000000000000000000000000000000000000000000000008152600401610cb5906129ed565b60405180910390fd5b610ccb8286868403610f07565b60019250505092915050565b600080610ce2610eff565b9050610cef81858561115c565b600191505092915050565b6000610d1760016000848152602001908152602001600020611857565b9050919050565b7f9f2df0fed2c77648de5860a4cc508cd0818c85b8b8a1ab4ceeef8d981c8956a681565b610d4b8261076b565b610d54816113d5565b610d5e838361141d565b505050565b6000600360008473ffffffffffffffffffffffffffffffffffffffff1673ffffffffffffffffffffffffffffffffffffffff16815260200190815260200160002060008373ffffffffffffffffffffffffffffffffffffffff1673ffffffffffffffffffffffffffffffffffffffff16815260200190815260200160002054905092915050565b7f65d7a28e3265b37a6474929f336521b332c1681b933f6cb9f3376673440d862a81565b610e387f9f2df0fed2c77648de5860a4cc508cd0818c85b8b8a1ab4ceeef8d981c8956a633610b5d565b610e77576040517f08c379a0000000000000000000000000000000000000000000000000000000008152600401610e6e9061285d565b60405180910390fd5b610e81828261160b565b5050565b60007f7965db0b000000000000000000000000000000000000000000000000000000007bffffffffffffffffffffffffffffffffffffffffffffffffffffffff1916827bffffffffffffffffffffffffffffffffffffffffffffffffffffffff19161480610ef85750610ef78261186c565b5b9050919050565b600033905090565b600073ffffffffffffffffffffffffffffffffffffffff168373ffffffffffffffffffffffffffffffffffffffff1603610f76576040517f08c379a0000000000000000000000000000000000000000000000000000000008152600401610f6d90612a7f565b60405180910390fd5b600073ffffffffffffffffffffffffffffffffffffffff168273ffffffffffffffffffffffffffffffffffffffff1603610fe5576040517f08c379a0000000000000000000000000000000000000000000000000000000008152600401610fdc90612b11565b60405180910390fd5b80600360008573ffffffffffffffffffffffffffffffffffffffff1673ffffffffffffffffffffffffffffffffffffffff16815260200190815260200160002060008473ffffffffffffffffffffffffffffffffffffffff1673ffffffffffffffffffffffffffffffffffffffff168152602001908152602001600020819055508173ffffffffffffffffffffffffffffffffffffffff168373ffffffffffffffffffffffffffffffffffffffff167f8c5be1e5ebec7d5bd14f71427d1e84f3dd0314c0f7b2291e5b200ac8c7c3b925836040516110c39190612322565b60405180910390a3505050565b60006110dc8484610d63565b90507fffffffffffffffffffffffffffffffffffffffffffffffffffffffffffffffff81146111565781811015611148576040517f08c379a000000000000000000000000000000000000000000000000000000000815260040161113f90612b7d565b60405180910390fd5b6111558484848403610f07565b5b50505050565b600073ffffffffffffffffffffffffffffffffffffffff168373ffffffffffffffffffffffffffffffffffffffff16036111cb576040517f08c379a00000000000000000000000000000000000000000000000000000000081526004016111c290612c0f565b60405180910390fd5b600073ffffffffffffffffffffffffffffffffffffffff168273ffffffffffffffffffffffffffffffffffffffff160361123a576040517f08c379a000000000000000000000000000000000000000000000000000000000815260040161123190612ca1565b60405180910390fd5b6112458383836118d6565b6000600260008573ffffffffffffffffffffffffffffffffffffffff1673ffffffffffffffffffffffffffffffffffffffff168152602001908152602001600020549050818110156112cc576040517f08c379a00000000000000000000000000000000000000000000000000000000081526004016112c390612d33565b60405180910390fd5b818103600260008673ffffffffffffffffffffffffffffffffffffffff1673ffffffffffffffffffffffffffffffffffffffff1681526020019081526020016000208190555081600260008573ffffffffffffffffffffffffffffffffffffffff1673ffffffffffffffffffffffffffffffffffffffff168152602001908152602001600020600082825401925050819055508273ffffffffffffffffffffffffffffffffffffffff168473ffffffffffffffffffffffffffffffffffffffff167fddf252ad1be2c89b69c2b068fc378daa952ba7f163c4a11628f55a4df523b3ef846040516113bc9190612322565b60405180910390a36113cf8484846118e6565b50505050565b6113e6816113e1610eff565b6118eb565b50565b6113f38282611970565b6114188160016000858152602001908152602001600020611a5090919063ffffffff16565b505050565b6114278282611a80565b61144c8160016000858152602001908152602001600020611b6190919063ffffffff16565b505050565b611459611b91565b6000600760006101000a81548160ff0219169083151502179055507f5db9ee0a495bf2e6ff9c91a7834c1ba4fdd244a5e8aa4e537bd38aeae4b073aa61149d610eff565b6040516114aa919061253d565b60405180910390a1565b600073ffffffffffffffffffffffffffffffffffffffff168273ffffffffffffffffffffffffffffffffffffffff1603611523576040517f08c379a000000000000000000000000000000000000000000000000000000000815260040161151a90612d9f565b60405180910390fd5b61152f600083836118d6565b806004600082825461154191906126b9565b9250508190555080600260008473ffffffffffffffffffffffffffffffffffffffff1673ffffffffffffffffffffffffffffffffffffffff168152602001908152602001600020600082825401925050819055508173ffffffffffffffffffffffffffffffffffffffff16600073ffffffffffffffffffffffffffffffffffffffff167fddf252ad1be2c89b69c2b068fc378daa952ba7f163c4a11628f55a4df523b3ef836040516115f39190612322565b60405180910390a3611607600083836118e6565b5050565b600073ffffffffffffffffffffffffffffffffffffffff168273ffffffffffffffffffffffffffffffffffffffff160361167a576040517f08c379a000000000000000000000000000000000000000000000000000000000815260040161167190612e31565b60405180910390fd5b611686826000836118d6565b6000600260008473ffffffffffffffffffffffffffffffffffffffff1673ffffffffffffffffffffffffffffffffffffffff1681526020019081526020016000205490508181101561170d576040517f08c379a000000000000000000000000000000000000000000000000000000000815260040161170490612ec3565b60405180910390fd5b818103600260008573ffffffffffffffffffffffffffffffffffffffff1673ffffffffffffffffffffffffffffffffffffffff1681526020019081526020016000208190555081600460008282540392505081905550600073ffffffffffffffffffffffffffffffffffffffff168373ffffffffffffffffffffffffffffffffffffffff167fddf252ad1be2c89b69c2b068fc378daa952ba7f163c4a11628f55a4df523b3ef846040516117c19190612322565b60405180910390a36117d5836000846118e6565b505050565b6117e2611bda565b6001600760006101000a81548160ff0219169083151502179055507f62e78cea01bee320cd4e420270b5ea74000d11b0c9f74754ebdbfc544b05a258611826610eff565b604051611833919061253d565b60405180910390a1565b600061184c8360000183611c24565b60001c905092915050565b600061186582600001611c4f565b9050919050565b60007f01ffc9a7000000000000000000000000000000000000000000000000000000007bffffffffffffffffffffffffffffffffffffffffffffffffffffffff1916827bffffffffffffffffffffffffffffffffffffffffffffffffffffffff1916149050919050565b6118e1838383611c60565b505050565b505050565b6118f58282610b5d565b61196c5761190281611cb8565b6119108360001c6020611ce5565b604051602001611921929190612fb7565b6040516020818303038152906040526040517f08c379a0000000000000000000000000000000000000000000000000000000008152600401611963919061221d565b60405180910390fd5b5050565b61197a8282610b5d565b611a4c57600160008084815260200190815260200160002060000160008373ffffffffffffffffffffffffffffffffffffffff1673ffffffffffffffffffffffffffffffffffffffff16815260200190815260200160002060006101000a81548160ff0219169083151502179055506119f1610eff565b73ffffffffffffffffffffffffffffffffffffffff168173ffffffffffffffffffffffffffffffffffffffff16837f2f8788117e7eff1d82e926ec794901d17c78024a50270940304540a733656f0d60405160405180910390a45b5050565b6000611a78836000018373ffffffffffffffffffffffffffffffffffffffff1660001b611f21565b905092915050565b611a8a8282610b5d565b15611b5d57600080600084815260200190815260200160002060000160008373ffffffffffffffffffffffffffffffffffffffff1673ffffffffffffffffffffffffffffffffffffffff16815260200190815260200160002060006101000a81548160ff021916908315150217905550611b02610eff565b73ffffffffffffffffffffffffffffffffffffffff168173ffffffffffffffffffffffffffffffffffffffff16837ff6391f5c32d9c69d2a47ea670b442974b53935d1edc7fd64eb21e047a839171b60405160405180910390a45b5050565b6000611b89836000018373ffffffffffffffffffffffffffffffffffffffff1660001b611f91565b905092915050565b611b9961097a565b611bd8576040517f08c379a0000000000000000000000000000000000000000000000000000000008152600401611bcf9061303d565b60405180910390fd5b565b611be261097a565b15611c22576040517f08c379a0000000000000000000000000000000000000000000000000000000008152600401611c19906130a9565b60405180910390fd5b565b6000826000018281548110611c3c57611c3b6130c9565b5b9060005260206000200154905092915050565b600081600001805490509050919050565b611c6b8383836120a5565b611c7361097a565b15611cb3576040517f08c379a0000000000000000000000000000000000000000000000000000000008152600401611caa9061316a565b60405180910390fd5b505050565b6060611cde8273ffffffffffffffffffffffffffffffffffffffff16601460ff16611ce5565b9050919050565b606060006002836002611cf8919061318a565b611d0291906126b9565b67ffffffffffffffff811115611d1b57611d1a6131cc565b5b6040519080825280601f01601f191660200182016040528015611d4d5781602001600182028036833780820191505090505b5090507f300000000000000000000000000000000000000000000000000000000000000081600081518110611d8557611d846130c9565b5b60200101907effffffffffffffffffffffffffffffffffffffffffffffffffffffffffffff1916908160001a9053507f780000000000000000000000000000000000000000000000000000000000000081600181518110611de957611de86130c9565b5b60200101907effffffffffffffffffffffffffffffffffffffffffffffffffffffffffffff1916908160001a90535060006001846002611e29919061318a565b611e3391906126b9565b90505b6001811115611ed3577f3031323334353637383961626364656600000000000000000000000000000000600f861660108110611e7557611e746130c9565b5b1a60f81b828281518110611e8c57611e8b6130c9565b5b60200101907effffffffffffffffffffffffffffffffffffffffffffffffffffffffffffff1916908160001a905350600485901c945080611ecc906131fb565b9050611e36565b5060008414611f17576040517f08c379a0000000000000000000000000000000000000000000000000000000008152600401611f0e90613270565b60405180910390fd5b8091505092915050565b6000611f2d83836120aa565b611f86578260000182908060018154018082558091505060019003906000526020600020016000909190919091505582600001805490508360010160008481526020019081526020016000208190555060019050611f8b565b600090505b92915050565b60008083600101600084815260200190815260200160002054905060008114612099576000600182611fc39190613290565b9050600060018660000180549050611fdb9190613290565b905081811461204a576000866000018281548110611ffc57611ffb6130c9565b5b90600052602060002001549050808760000184815481106120205761201f6130c9565b5b90600052602060002001819055508387600101600083815260200190815260200160002081905550505b8560000180548061205e5761205d6132c4565b5b60019003818190600052602060002001600090559055856001016000868152602001908152602001600020600090556001935050505061209f565b60009150505b92915050565b505050565b600080836001016000848152602001908152602001600020541415905092915050565b600080fd5b60007fffffffff0000000000000000000000000000000000000000000000000000000082169050919050565b612107816120d2565b811461211257600080fd5b50565b600081359050612124816120fe565b92915050565b6000602082840312156121405761213f6120cd565b5b600061214e84828501612115565b91505092915050565b60008115159050919050565b61216c81612157565b82525050565b60006020820190506121876000830184612163565b92915050565b600081519050919050565b600082825260208201905092915050565b60005b838110156121c75780820151818401526020810190506121ac565b60008484015250505050565b6000601f19601f8301169050919050565b60006121ef8261218d565b6121f98185612198565b93506122098185602086016121a9565b612212816121d3565b840191505092915050565b6000602082019050818103600083015261223781846121e4565b905092915050565b600073ffffffffffffffffffffffffffffffffffffffff82169050919050565b600061226a8261223f565b9050919050565b61227a8161225f565b811461228557600080fd5b50565b60008135905061229781612271565b92915050565b6000819050919050565b6122b08161229d565b81146122bb57600080fd5b50565b6000813590506122cd816122a7565b92915050565b600080604083850312156122ea576122e96120cd565b5b60006122f885828601612288565b9250506020612309858286016122be565b9150509250929050565b61231c8161229d565b82525050565b60006020820190506123376000830184612313565b92915050565b600080600060608486031215612356576123556120cd565b5b600061236486828701612288565b935050602061237586828701612288565b9250506040612386868287016122be565b9150509250925092565b6000819050919050565b6123a381612390565b81146123ae57600080fd5b50565b6000813590506123c08161239a565b92915050565b6000602082840312156123dc576123db6120cd565b5b60006123ea848285016123b1565b91505092915050565b6123fc81612390565b82525050565b600060208201905061241760008301846123f3565b92915050565b60008060408385031215612434576124336120cd565b5b6000612442858286016123b1565b925050602061245385828601612288565b9150509250929050565b600060ff82169050919050565b6124738161245d565b82525050565b600060208201905061248e600083018461246a565b92915050565b6000602082840312156124aa576124a96120cd565b5b60006124b8848285016122be565b91505092915050565b6000602082840312156124d7576124d66120cd565b5b60006124e584828501612288565b91505092915050565b60008060408385031215612505576125046120cd565b5b6000612513858286016123b1565b9250506020612524858286016122be565b9150509250929050565b6125378161225f565b82525050565b6000602082019050612552600083018461252e565b92915050565b6000806040838503121561256f5761256e6120cd565b5b600061257d85828601612288565b925050602061258e85828601612288565b9150509250929050565b7f4e487b7100000000000000000000000000000000000000000000000000000000600052602260045260246000fd5b600060028204905060018216806125df57607f821691505b6020821081036125f2576125f1612598565b5b50919050565b7f416363657373436f6e74726f6c3a2063616e206f6e6c792072656e6f756e636560008201527f20726f6c657320666f722073656c660000000000000000000000000000000000602082015250565b6000612654602f83612198565b915061265f826125f8565b604082019050919050565b6000602082019050818103600083015261268381612647565b9050919050565b7f4e487b7100000000000000000000000000000000000000000000000000000000600052601160045260246000fd5b60006126c48261229d565b91506126cf8361229d565b92508282019050808211156126e7576126e661268a565b5b92915050565b7f45524332305072657365744d696e7465725061757365723a206d75737420686160008201527f76652070617573657220726f6c6520746f20756e706175736500000000000000602082015250565b6000612749603983612198565b9150612754826126ed565b604082019050919050565b600060208201905081810360008301526127788161273c565b9050919050565b7f45524332305072657365744d696e7465725061757365723a206d75737420686160008201527f7665206d696e74657220726f6c6520746f206d696e7400000000000000000000602082015250565b60006127db603683612198565b91506127e68261277f565b604082019050919050565b6000602082019050818103600083015261280a816127ce565b9050919050565b7f43616c6c6572206973206e6f742061206d696e74657200000000000000000000600082015250565b6000612847601683612198565b915061285282612811565b602082019050919050565b600060208201905081810360008301526128768161283a565b9050919050565b7f416d6f756e742068617320746f2062652067726561746572207468616e203000600082015250565b60006128b3601f83612198565b91506128be8261287d565b602082019050919050565b600060208201905081810360008301526128e2816128a6565b9050919050565b7f45524332305072657365744d696e7465725061757365723a206d75737420686160008201527f76652070617573657220726f6c6520746f207061757365000000000000000000602082015250565b6000612945603783612198565b9150612950826128e9565b604082019050919050565b6000602082019050818103600083015261297481612938565b9050919050565b7f45524332303a2064656372656173656420616c6c6f77616e63652062656c6f7760008201527f207a65726f000000000000000000000000000000000000000000000000000000602082015250565b60006129d7602583612198565b91506129e28261297b565b604082019050919050565b60006020820190508181036000830152612a06816129ca565b9050919050565b7f45524332303a20617070726f76652066726f6d20746865207a65726f2061646460008201527f7265737300000000000000000000000000000000000000000000000000000000602082015250565b6000612a69602483612198565b9150612a7482612a0d565b604082019050919050565b60006020820190508181036000830152612a9881612a5c565b9050919050565b7f45524332303a20617070726f766520746f20746865207a65726f20616464726560008201527f7373000000000000000000000000000000000000000000000000000000000000602082015250565b6000612afb602283612198565b9150612b0682612a9f565b604082019050919050565b60006020820190508181036000830152612b2a81612aee565b9050919050565b7f45524332303a20696e73756666696369656e7420616c6c6f77616e6365000000600082015250565b6000612b67601d83612198565b9150612b7282612b31565b602082019050919050565b60006020820190508181036000830152612b9681612b5a565b9050919050565b7f45524332303a207472616e736665722066726f6d20746865207a65726f20616460008201527f6472657373000000000000000000000000000000000000000000000000000000602082015250565b6000612bf9602583612198565b9150612c0482612b9d565b604082019050919050565b60006020820190508181036000830152612c2881612bec565b9050919050565b7f45524332303a207472616e7366657220746f20746865207a65726f206164647260008201527f6573730000000000000000000000000000000000000000000000000000000000602082015250565b6000612c8b602383612198565b9150612c9682612c2f565b604082019050919050565b60006020820190508181036000830152612cba81612c7e565b9050919050565b7f45524332303a207472616e7366657220616d6f756e742065786365656473206260008201527f616c616e63650000000000000000000000000000000000000000000000000000602082015250565b6000612d1d602683612198565b9150612d2882612cc1565b604082019050919050565b60006020820190508181036000830152612d4c81612d10565b9050919050565b7f45524332303a206d696e7420746f20746865207a65726f206164647265737300600082015250565b6000612d89601f83612198565b9150612d9482612d53565b602082019050919050565b60006020820190508181036000830152612db881612d7c565b9050919050565b7f45524332303a206275726e2066726f6d20746865207a65726f2061646472657360008201527f7300000000000000000000000000000000000000000000000000000000000000602082015250565b6000612e1b602183612198565b9150612e2682612dbf565b604082019050919050565b60006020820190508181036000830152612e4a81612e0e565b9050919050565b7f45524332303a206275726e20616d6f756e7420657863656564732062616c616e60008201527f6365000000000000000000000000000000000000000000000000000000000000602082015250565b6000612ead602283612198565b9150612eb882612e51565b604082019050919050565b60006020820190508181036000830152612edc81612ea0565b9050919050565b600081905092915050565b7f416363657373436f6e74726f6c3a206163636f756e7420000000000000000000600082015250565b6000612f24601783612ee3565b9150612f2f82612eee565b601782019050919050565b6000612f458261218d565b612f4f8185612ee3565b9350612f5f8185602086016121a9565b80840191505092915050565b7f206973206d697373696e6720726f6c6520000000000000000000000000000000600082015250565b6000612fa1601183612ee3565b9150612fac82612f6b565b601182019050919050565b6000612fc282612f17565b9150612fce8285612f3a565b9150612fd982612f94565b9150612fe58284612f3a565b91508190509392505050565b7f5061757361626c653a206e6f7420706175736564000000000000000000000000600082015250565b6000613027601483612198565b915061303282612ff1565b602082019050919050565b600060208201905081810360008301526130568161301a565b9050919050565b7f5061757361626c653a2070617573656400000000000000000000000000000000600082015250565b6000613093601083612198565b915061309e8261305d565b602082019050919050565b600060208201905081810360008301526130c281613086565b9050919050565b7f4e487b7100000000000000000000000000000000000000000000000000000000600052603260045260246000fd5b7f45524332305061757361626c653a20746f6b656e207472616e7366657220776860008201527f696c652070617573656400000000000000000000000000000000000000000000602082015250565b6000613154602a83612198565b915061315f826130f8565b604082019050919050565b6000602082019050818103600083015261318381613147565b9050919050565b60006131958261229d565b91506131a08361229d565b92508282026131ae8161229d565b915082820484148315176131c5576131c461268a565b5b5092915050565b7f4e487b7100000000000000000000000000000000000000000000000000000000600052604160045260246000fd5b60006132068261229d565b9150600082036132195761321861268a565b5b600182039050919050565b7f537472696e67733a20686578206c656e67746820696e73756666696369656e74600082015250565b600061325a602083612198565b915061326582613224565b602082019050919050565b600060208201905081810360008301526132898161324d565b9050919050565b600061329b8261229d565b91506132a68361229d565b92508282039050818111156132be576132bd61268a565b5b92915050565b7f4e487b7100000000000000000000000000000000000000000000000000000000600052603160045260246000fdfea2646970667358221220b0f9cddf1e8ec467193ae12f593ac6b471b5e5c9bcef2228e8d0904b71fee57664736f6c634300081b0033",
  "linkReferences": {},
  "deployedLinkReferences": {}
}