{
  "_format": "hh-sol-artifact-1",
  "contractName": "BankAccounts",
  "sourceName": "contracts/BankAccounts.sol",
  "abi": [
    {
      "inputs": [],
      "stateMutability": "nonpayable",
      "type": "constructor"
    },
    {
      "inputs": [
        {
          "internalType": "address",
          "name": "account",
          "type": "address"
        }
      ],
      "name": "accountExists",
      "outputs": [
        {
          "internalType": "bool",
          "name": "",
          "type": "bool"
        }
      ],
      "stateMutability": "view",
      "type": "function"
    },
    {
      "inputs": [
        {
          "internalType": "string",
          "name": "name",
          "type": "string"
        },
        {
          "internalType": "string",
          "name": "publicKey",
          "type": "string"
        },
        {
          "internalType": "string",
          "name": "enode",
          "type": "string"
        },
        {
          "internalType": "address",
          "name": "account",
          "type": "address"
        },
        {
          "internalType": "string",
          "name": "rpcEndpoint",
          "type": "string"
        }
      ],
      "name": "addNode",
      "outputs": [],
      "stateMutability": "nonpayable",
      "type": "function"
    },
    {
      "inputs": [],
      "name": "bankNodeCount",
      "outputs": [
        {
          "internalType": "uint256",
          "name": "",
          "type": "uint256"
        }
      ],
      "stateMutability": "view",
      "type": "function"
    },
    {
      "inputs": [
        {
          "internalType": "string",
          "name": "",
          "type": "string"
        }
      ],
      "name": "bankNodes",
      "outputs": [
        {
          "internalType": "string",
          "name": "name",
          "type": "string"
        },
        {
          "internalType": "address",
          "name": "account",
          "type": "address"
        },
        {
          "internalType": "string",
          "name": "publicKey",
          "type": "string"
        },
        {
          "internalType": "string",
          "name": "enode",
          "type": "string"
        },
        {
          "internalType": "string",
          "name": "rpcEndpoint",
          "type": "string"
        }
      ],
      "stateMutability": "view",
      "type": "function"
    },
    {
      "inputs": [],
      "name": "getAllBankNodes",
      "outputs": [
        {
          "components": [
            {
              "internalType": "string",
              "name": "name",
              "type": "string"
            },
            {
              "internalType": "address",
              "name": "account",
              "type": "address"
            },
            {
              "internalType": "string",
              "name": "publicKey",
              "type": "string"
            },
            {
              "internalType": "string",
              "name": "enode",
              "type": "string"
            },
            {
              "internalType": "string",
              "name": "rpcEndpoint",
              "type": "string"
            }
          ],
          "internalType": "struct BankAccounts.BankNode[]",
          "name": "",
          "type": "tuple[]"
        }
      ],
      "stateMutability": "view",
      "type": "function"
    },
    {
      "inputs": [
        {
          "internalType": "string",
          "name": "publicKey",
          "type": "string"
        }
      ],
      "name": "getNode",
      "outputs": [
        {
          "components": [
            {
              "internalType": "string",
              "name": "name",
              "type": "string"
            },
            {
              "internalType": "address",
              "name": "account",
              "type": "address"
            },
            {
              "internalType": "string",
              "name": "publicKey",
              "type": "string"
            },
            {
              "internalType": "string",
              "name": "enode",
              "type": "string"
            },
            {
              "internalType": "string",
              "name": "rpcEndpoint",
              "type": "string"
            }
          ],
          "internalType": "struct BankAccounts.BankNode",
          "name": "",
          "type": "tuple"
        }
      ],
      "stateMutability": "view",
      "type": "function"
    },
    {
      "inputs": [
        {
          "internalType": "string",
          "name": "publicKey",
          "type": "string"
        }
      ],
      "name": "getNodeAccount",
      "outputs": [
        {
          "internalType": "address",
          "name": "",
          "type": "address"
        }
      ],
      "stateMutability": "view",
      "type": "function"
    },
    {
      "inputs": [
        {
          "internalType": "string",
          "name": "publicKey",
          "type": "string"
        }
      ],
      "name": "getNodeEnode",
      "outputs": [
        {
          "internalType": "string",
          "name": "",
          "type": "string"
        }
      ],
      "stateMutability": "view",
      "type": "function"
    },
    {
      "inputs": [
        {
          "internalType": "string",
          "name": "publicKey",
          "type": "string"
        }
      ],
      "name": "getNodeName",
      "outputs": [
        {
          "internalType": "string",
          "name": "",
          "type": "string"
        }
      ],
      "stateMutability": "view",
      "type": "function"
    },
    {
      "inputs": [
        {
          "internalType": "string",
          "name": "publicKey",
          "type": "string"
        }
      ],
      "name": "getNodeRpcEndpoint",
      "outputs": [
        {
          "internalType": "string",
          "name": "",
          "type": "string"
        }
      ],
      "stateMutability": "view",
      "type": "function"
    },
    {
      "inputs": [
        {
          "internalType": "string",
          "name": "publicKey",
          "type": "string"
        }
      ],
      "name": "nodeExists",
      "outputs": [
        {
          "internalType": "bool",
          "name": "",
          "type": "bool"
        }
      ],
      "stateMutability": "view",
      "type": "function"
    },
    {
      "inputs": [
        {
          "internalType": "string",
          "name": "publicKey",
          "type": "string"
        },
        {
          "internalType": "string",
          "name": "name",
          "type": "string"
        }
      ],
      "name": "nodeExistsByName",
      "outputs": [
        {
          "internalType": "bool",
          "name": "",
          "type": "bool"
        }
      ],
      "stateMutability": "view",
      "type": "function"
    },
    {
      "inputs": [
        {
          "internalType": "string",
          "name": "publicKey",
          "type": "string"
        }
      ],
      "name": "removeNode",
      "outputs": [],
      "stateMutability": "nonpayable",
      "type": "function"
    },
    {
      "inputs": [
        {
          "internalType": "string",
          "name": "publicKey",
          "type": "string"
        },
        {
          "internalType": "address",
          "name": "account",
          "type": "address"
        }
      ],
      "name": "updateNodeAccount",
      "outputs": [],
      "stateMutability": "nonpayable",
      "type": "function"
    },
    {
      "inputs": [
        {
          "internalType": "string",
          "name": "publicKey",
          "type": "string"
        },
        {
          "internalType": "string",
          "name": "enode",
          "type": "string"
        }
      ],
      "name": "updateNodeEnode",
      "outputs": [],
      "stateMutability": "nonpayable",
      "type": "function"
    },
    {
      "inputs": [
        {
          "internalType": "string",
          "name": "publicKey",
          "type": "string"
        },
        {
          "internalType": "string",
          "name": "name",
          "type": "string"
        }
      ],
      "name": "updateNodeName",
      "outputs": [],
      "stateMutability": "nonpayable",
      "type": "function"
    },
    {
      "inputs": [
        {
          "internalType": "string",
          "name": "oldPublicKey",
          "type": "string"
        },
        {
          "internalType": "string",
          "name": "newPublicKey",
          "type": "string"
        }
      ],
      "name": "updateNodePrivateKey",
      "outputs": [],
      "stateMutability": "nonpayable",
      "type": "function"
    },
    {
      "inputs": [
        {
          "internalType": "string",
          "name": "publicKey",
          "type": "string"
        },
        {
          "internalType": "string",
          "name": "rpcEndpoint",
          "type": "string"
        }
      ],
      "name": "updateNodeRpcEndpoint",
      "outputs": [],
      "stateMutability": "nonpayable",
      "type": "function"
    }
  ],
  "bytecode": "0x608060405234801561001057600080fd5b506100d26040518060400160405280600e81526020017f47656e65736973206e6f646520410000000000000000000000000000000000008152506040518060a0016040528060808152602001612d80608091396040518060c0016040528060998152602001612fb2609991397342868199703c1e0c03f065592832b60683b2ff896040518060400160405280601681526020017f687474703a2f2f3137322e32302e302e333a383534350000000000000000000081525061031a60201b60201c565b6101936040518060400160405280600e81526020017f47656e65736973206e6f646520420000000000000000000000000000000000008152506040518060a001604052806080815260200161304b608091396040518060c0016040528060998152602001612e006099913973a3910a31fa74691699dcff38393f0a9e15888cb76040518060400160405280601681526020017f687474703a2f2f3137322e32302e302e343a383534350000000000000000000081525061031a60201b60201c565b6102546040518060400160405280600e81526020017f47656e65736973206e6f646520430000000000000000000000000000000000008152506040518060a0016040528060808152602001612c67608091396040518060c0016040528060998152602001612f196099913973c86173e09503f0e1e6579038142c45154f4128e56040518060400160405280601681526020017f687474703a2f2f3137322e32302e302e353a383534350000000000000000000081525061031a60201b60201c565b6103156040518060400160405280600e81526020017f47656e65736973206e6f646520440000000000000000000000000000000000008152506040518060a0016040528060808152602001612e99608091396040518060c0016040528060998152602001612ce76099913973fed757455747c3e9f2716e0a7fa73aee305566396040518060400160405280601681526020017f687474703a2f2f3137322e32302e302e363a383534350000000000000000000081525061031a60201b60201c565b610881565b6040518060a001604052808681526020018373ffffffffffffffffffffffffffffffffffffffff1681526020018581526020018481526020018281525060008560405161036791906104dc565b9081526020016040518091039020600082015181600001908161038a9190610738565b5060208201518160010160006101000a81548173ffffffffffffffffffffffffffffffffffffffff021916908373ffffffffffffffffffffffffffffffffffffffff16021790555060408201518160020190816103e79190610738565b5060608201518160030190816103fd9190610738565b5060808201518160040190816104139190610738565b5090505060028490806001815401808255809150506001900390600052602060002001600090919091909150908161044b9190610738565b506001600081548092919061045f90610839565b91905055505050505050565b600081519050919050565b600081905092915050565b60005b8381101561049f578082015181840152602081019050610484565b60008484015250505050565b60006104b68261046b565b6104c08185610476565b93506104d0818560208601610481565b80840191505092915050565b60006104e882846104ab565b915081905092915050565b7f4e487b7100000000000000000000000000000000000000000000000000000000600052604160045260246000fd5b7f4e487b7100000000000000000000000000000000000000000000000000000000600052602260045260246000fd5b6000600282049050600182168061056957607f821691505b60208210810361057c5761057b610522565b5b50919050565b60008190508160005260206000209050919050565b60006020601f8301049050919050565b600082821b905092915050565b6000600883026105e47fffffffffffffffffffffffffffffffffffffffffffffffffffffffffffffffff826105a7565b6105ee86836105a7565b95508019841693508086168417925050509392505050565b6000819050919050565b6000819050919050565b600061063561063061062b84610606565b610610565b610606565b9050919050565b6000819050919050565b61064f8361061a565b61066361065b8261063c565b8484546105b4565b825550505050565b600090565b61067861066b565b610683818484610646565b505050565b5b818110156106a75761069c600082610670565b600181019050610689565b5050565b601f8211156106ec576106bd81610582565b6106c684610597565b810160208510156106d5578190505b6106e96106e185610597565b830182610688565b50505b505050565b600082821c905092915050565b600061070f600019846008026106f1565b1980831691505092915050565b600061072883836106fe565b9150826002028217905092915050565b6107418261046b565b67ffffffffffffffff81111561075a576107596104f3565b5b6107648254610551565b61076f8282856106ab565b600060209050601f8311600181146107a25760008415610790578287015190505b61079a858261071c565b865550610802565b601f1984166107b086610582565b60005b828110156107d8578489015182556001820191506020850194506020810190506107b3565b868310156107f557848901516107f1601f8916826106fe565b8355505b6001600288020188555050505b505050505050565b7f4e487b7100000000000000000000000000000000000000000000000000000000600052601160045260246000fd5b600061084482610606565b91507fffffffffffffffffffffffffffffffffffffffffffffffffffffffffffffffff82036108765761087561080a565b5b600182019050919050565b6123d7806108906000396000f3fe608060405234801561001057600080fd5b50600436106101165760003560e01c806375cd51ed116100a2578063a824d05411610071578063a824d05414610301578063a85ef9c814610335578063bfcc60a214610365578063c9a3f18014610395578063e3558e2b146103b357610116565b806375cd51ed146102535780638ad0d81d146102835780639428522a146102a157806397615705146102d157610116565b8063274a9fa3116100e9578063274a9fa3146101b357806345a0a134146101e35780634665cb07146101ff5780635c6698e01461021b578063698982ce1461023757610116565b8063172f1b4f1461011b5780631b128f611461014b5780631cd0b2061461017b57806325dcb86f14610197575b600080fd5b6101356004803603810190610130919061174a565b6103cf565b6040516101429190611812565b60405180910390f35b6101656004803603810190610160919061174a565b610482565b604051610172919061184f565b60405180910390f35b6101956004803603810190610190919061186a565b6104fa565b005b6101b160048036038101906101ac9190611940565b61052d565b005b6101cd60048036038101906101c8919061174a565b610591565b6040516101da9190611812565b60405180910390f35b6101fd60048036038101906101f8919061186a565b610644565b005b6102196004803603810190610214919061174a565b610677565b005b6102356004803603810190610230919061186a565b610702565b005b610251600480360381019061024c919061186a565b61089f565b005b61026d6004803603810190610268919061199c565b6108d2565b60405161027a919061184f565b60405180910390f35b61028b610999565b6040516102989190611b6f565b60405180910390f35b6102bb60048036038101906102b6919061174a565b610d1f565b6040516102c89190611c1c565b60405180910390f35b6102eb60048036038101906102e6919061174a565b610ff5565b6040516102f89190611812565b60405180910390f35b61031b6004803603810190610316919061174a565b6110a8565b60405161032c959493929190611c4d565b60405180910390f35b61034f600480360381019061034a919061174a565b611334565b60405161035c9190611cbc565b60405180910390f35b61037f600480360381019061037a919061186a565b61137e565b60405161038c919061184f565b60405180910390f35b61039d6113f7565b6040516103aa9190611cf0565b60405180910390f35b6103cd60048036038101906103c89190611d0b565b6113fd565b005b60606000826040516103e19190611e32565b908152602001604051809103902060000180546103fd90611e78565b80601f016020809104026020016040519081016040528092919081815260200182805461042990611e78565b80156104765780601f1061044b57610100808354040283529160200191610476565b820191906000526020600020905b81548152906001019060200180831161045957829003601f168201915b50505050509050919050565b6000816040516020016104959190611e32565b604051602081830303815290604052805190602001206000836040516104bb9190611e32565b90815260200160405180910390206002016040516020016104dc9190611f41565b60405160208183030381529060405280519060200120149050919050565b8060008360405161050b9190611e32565b9081526020016040518091039020600001908161052891906120ef565b505050565b8060008360405161053e9190611e32565b908152602001604051809103902060010160006101000a81548173ffffffffffffffffffffffffffffffffffffffff021916908373ffffffffffffffffffffffffffffffffffffffff1602179055505050565b60606000826040516105a39190611e32565b908152602001604051809103902060040180546105bf90611e78565b80601f01602080910402602001604051908101604052809291908181526020018280546105eb90611e78565b80156106385780601f1061060d57610100808354040283529160200191610638565b820191906000526020600020905b81548152906001019060200180831161061b57829003601f168201915b50505050509050919050565b806000836040516106559190611e32565b9081526020016040518091039020600301908161067291906120ef565b505050565b6000816040516106879190611e32565b9081526020016040518091039020600080820160006106a6919061154e565b6001820160006101000a81549073ffffffffffffffffffffffffffffffffffffffff02191690556002820160006106dd919061154e565b6003820160006106ed919061154e565b6004820160006106fd919061154e565b505050565b600080836040516107139190611e32565b908152602001604051809103902090508181600201908161073491906120ef565b50806000836040516107469190611e32565b90815260200160405180910390206000820181600001908161076891906121d7565b506001820160009054906101000a900473ffffffffffffffffffffffffffffffffffffffff168160010160006101000a81548173ffffffffffffffffffffffffffffffffffffffff021916908373ffffffffffffffffffffffffffffffffffffffff160217905550600282018160020190816107e491906121d7565b50600382018160030190816107f991906121d7565b506004820181600401908161080e91906121d7565b509050506000836040516108229190611e32565b908152602001604051809103902060008082016000610841919061154e565b6001820160006101000a81549073ffffffffffffffffffffffffffffffffffffffff0219169055600282016000610878919061154e565b600382016000610888919061154e565b600482016000610898919061154e565b5050505050565b806000836040516108b09190611e32565b908152602001604051809103902060040190816108cd91906120ef565b505050565b600080600090505b60015481101561098e578273ffffffffffffffffffffffffffffffffffffffff1660008260405160200161090e91906122e0565b60405160208183030381529060405260405161092a9190611e32565b908152602001604051809103902060010160009054906101000a900473ffffffffffffffffffffffffffffffffffffffff1673ffffffffffffffffffffffffffffffffffffffff1603610981576001915050610994565b80806001019150506108da565b50600090505b919050565b6060600060028054905067ffffffffffffffff8111156109bc576109bb61161f565b5b6040519080825280602002602001820160405280156109f557816020015b6109e261158e565b8152602001906001900390816109da5790505b50905060005b600280549050811015610d1757600060028281548110610a1e57610a1d6122fb565b5b90600052602060002001604051610a359190611f41565b90815260200160405180910390206040518060a0016040529081600082018054610a5e90611e78565b80601f0160208091040260200160405190810160405280929190818152602001828054610a8a90611e78565b8015610ad75780601f10610aac57610100808354040283529160200191610ad7565b820191906000526020600020905b815481529060010190602001808311610aba57829003601f168201915b505050505081526020016001820160009054906101000a900473ffffffffffffffffffffffffffffffffffffffff1673ffffffffffffffffffffffffffffffffffffffff1673ffffffffffffffffffffffffffffffffffffffff168152602001600282018054610b4690611e78565b80601f0160208091040260200160405190810160405280929190818152602001828054610b7290611e78565b8015610bbf5780601f10610b9457610100808354040283529160200191610bbf565b820191906000526020600020905b815481529060010190602001808311610ba257829003601f168201915b50505050508152602001600382018054610bd890611e78565b80601f0160208091040260200160405190810160405280929190818152602001828054610c0490611e78565b8015610c515780601f10610c2657610100808354040283529160200191610c51565b820191906000526020600020905b815481529060010190602001808311610c3457829003601f168201915b50505050508152602001600482018054610c6a90611e78565b80601f0160208091040260200160405190810160405280929190818152602001828054610c9690611e78565b8015610ce35780601f10610cb857610100808354040283529160200191610ce3565b820191906000526020600020905b815481529060010190602001808311610cc657829003601f168201915b505050505081525050828281518110610cff57610cfe6122fb565b5b602002602001018190525080806001019150506109fb565b508091505090565b610d2761158e565b600082604051610d379190611e32565b90815260200160405180910390206040518060a0016040529081600082018054610d6090611e78565b80601f0160208091040260200160405190810160405280929190818152602001828054610d8c90611e78565b8015610dd95780601f10610dae57610100808354040283529160200191610dd9565b820191906000526020600020905b815481529060010190602001808311610dbc57829003601f168201915b505050505081526020016001820160009054906101000a900473ffffffffffffffffffffffffffffffffffffffff1673ffffffffffffffffffffffffffffffffffffffff1673ffffffffffffffffffffffffffffffffffffffff168152602001600282018054610e4890611e78565b80601f0160208091040260200160405190810160405280929190818152602001828054610e7490611e78565b8015610ec15780601f10610e9657610100808354040283529160200191610ec1565b820191906000526020600020905b815481529060010190602001808311610ea457829003601f168201915b50505050508152602001600382018054610eda90611e78565b80601f0160208091040260200160405190810160405280929190818152602001828054610f0690611e78565b8015610f535780601f10610f2857610100808354040283529160200191610f53565b820191906000526020600020905b815481529060010190602001808311610f3657829003601f168201915b50505050508152602001600482018054610f6c90611e78565b80601f0160208091040260200160405190810160405280929190818152602001828054610f9890611e78565b8015610fe55780601f10610fba57610100808354040283529160200191610fe5565b820191906000526020600020905b815481529060010190602001808311610fc857829003601f168201915b5050505050815250509050919050565b60606000826040516110079190611e32565b9081526020016040518091039020600301805461102390611e78565b80601f016020809104026020016040519081016040528092919081815260200182805461104f90611e78565b801561109c5780601f106110715761010080835404028352916020019161109c565b820191906000526020600020905b81548152906001019060200180831161107f57829003601f168201915b50505050509050919050565b6000818051602081018201805184825260208301602085012081835280955050505050506000915090508060000180546110e190611e78565b80601f016020809104026020016040519081016040528092919081815260200182805461110d90611e78565b801561115a5780601f1061112f5761010080835404028352916020019161115a565b820191906000526020600020905b81548152906001019060200180831161113d57829003601f168201915b5050505050908060010160009054906101000a900473ffffffffffffffffffffffffffffffffffffffff169080600201805461119590611e78565b80601f01602080910402602001604051908101604052809291908181526020018280546111c190611e78565b801561120e5780601f106111e35761010080835404028352916020019161120e565b820191906000526020600020905b8154815290600101906020018083116111f157829003601f168201915b50505050509080600301805461122390611e78565b80601f016020809104026020016040519081016040528092919081815260200182805461124f90611e78565b801561129c5780601f106112715761010080835404028352916020019161129c565b820191906000526020600020905b81548152906001019060200180831161127f57829003601f168201915b5050505050908060040180546112b190611e78565b80601f01602080910402602001604051908101604052809291908181526020018280546112dd90611e78565b801561132a5780601f106112ff5761010080835404028352916020019161132a565b820191906000526020600020905b81548152906001019060200180831161130d57829003601f168201915b5050505050905085565b600080826040516113459190611e32565b908152602001604051809103902060010160009054906101000a900473ffffffffffffffffffffffffffffffffffffffff169050919050565b6000816040516020016113919190611e32565b604051602081830303815290604052805190602001206000846040516113b79190611e32565b90815260200160405180910390206000016040516020016113d89190611f41565b6040516020818303038152906040528051906020012014905092915050565b60015481565b6040518060a001604052808681526020018373ffffffffffffffffffffffffffffffffffffffff1681526020018581526020018481526020018281525060008560405161144a9190611e32565b9081526020016040518091039020600082015181600001908161146d91906120ef565b5060208201518160010160006101000a81548173ffffffffffffffffffffffffffffffffffffffff021916908373ffffffffffffffffffffffffffffffffffffffff16021790555060408201518160020190816114ca91906120ef565b5060608201518160030190816114e091906120ef565b5060808201518160040190816114f691906120ef565b5090505060028490806001815401808255809150506001900390600052602060002001600090919091909150908161152e91906120ef565b506001600081548092919061154290612359565b91905055505050505050565b50805461155a90611e78565b6000825580601f1061156c575061158b565b601f01602090049060005260206000209081019061158a91906115d3565b5b50565b6040518060a0016040528060608152602001600073ffffffffffffffffffffffffffffffffffffffff1681526020016060815260200160608152602001606081525090565b5b808211156115ec5760008160009055506001016115d4565b5090565b6000604051905090565b600080fd5b600080fd5b600080fd5b600080fd5b6000601f19601f8301169050919050565b7f4e487b7100000000000000000000000000000000000000000000000000000000600052604160045260246000fd5b6116578261160e565b810181811067ffffffffffffffff821117156116765761167561161f565b5b80604052505050565b60006116896115f0565b9050611695828261164e565b919050565b600067ffffffffffffffff8211156116b5576116b461161f565b5b6116be8261160e565b9050602081019050919050565b82818337600083830152505050565b60006116ed6116e88461169a565b61167f565b90508281526020810184848401111561170957611708611609565b5b6117148482856116cb565b509392505050565b600082601f83011261173157611730611604565b5b81356117418482602086016116da565b91505092915050565b6000602082840312156117605761175f6115fa565b5b600082013567ffffffffffffffff81111561177e5761177d6115ff565b5b61178a8482850161171c565b91505092915050565b600081519050919050565b600082825260208201905092915050565b60005b838110156117cd5780820151818401526020810190506117b2565b60008484015250505050565b60006117e482611793565b6117ee818561179e565b93506117fe8185602086016117af565b6118078161160e565b840191505092915050565b6000602082019050818103600083015261182c81846117d9565b905092915050565b60008115159050919050565b61184981611834565b82525050565b60006020820190506118646000830184611840565b92915050565b60008060408385031215611881576118806115fa565b5b600083013567ffffffffffffffff81111561189f5761189e6115ff565b5b6118ab8582860161171c565b925050602083013567ffffffffffffffff8111156118cc576118cb6115ff565b5b6118d88582860161171c565b9150509250929050565b600073ffffffffffffffffffffffffffffffffffffffff82169050919050565b600061190d826118e2565b9050919050565b61191d81611902565b811461192857600080fd5b50565b60008135905061193a81611914565b92915050565b60008060408385031215611957576119566115fa565b5b600083013567ffffffffffffffff811115611975576119746115ff565b5b6119818582860161171c565b92505060206119928582860161192b565b9150509250929050565b6000602082840312156119b2576119b16115fa565b5b60006119c08482850161192b565b91505092915050565b600081519050919050565b600082825260208201905092915050565b6000819050602082019050919050565b600082825260208201905092915050565b6000611a1182611793565b611a1b81856119f5565b9350611a2b8185602086016117af565b611a348161160e565b840191505092915050565b611a4881611902565b82525050565b600060a0830160008301518482036000860152611a6b8282611a06565b9150506020830151611a806020860182611a3f565b5060408301518482036040860152611a988282611a06565b91505060608301518482036060860152611ab28282611a06565b91505060808301518482036080860152611acc8282611a06565b9150508091505092915050565b6000611ae58383611a4e565b905092915050565b6000602082019050919050565b6000611b05826119c9565b611b0f81856119d4565b935083602082028501611b21856119e5565b8060005b85811015611b5d5784840389528151611b3e8582611ad9565b9450611b4983611aed565b925060208a01995050600181019050611b25565b50829750879550505050505092915050565b60006020820190508181036000830152611b898184611afa565b905092915050565b600060a0830160008301518482036000860152611bae8282611a06565b9150506020830151611bc36020860182611a3f565b5060408301518482036040860152611bdb8282611a06565b91505060608301518482036060860152611bf58282611a06565b91505060808301518482036080860152611c0f8282611a06565b9150508091505092915050565b60006020820190508181036000830152611c368184611b91565b905092915050565b611c4781611902565b82525050565b600060a0820190508181036000830152611c6781886117d9565b9050611c766020830187611c3e565b8181036040830152611c8881866117d9565b90508181036060830152611c9c81856117d9565b90508181036080830152611cb081846117d9565b90509695505050505050565b6000602082019050611cd16000830184611c3e565b92915050565b6000819050919050565b611cea81611cd7565b82525050565b6000602082019050611d056000830184611ce1565b92915050565b600080600080600060a08688031215611d2757611d266115fa565b5b600086013567ffffffffffffffff811115611d4557611d446115ff565b5b611d518882890161171c565b955050602086013567ffffffffffffffff811115611d7257611d716115ff565b5b611d7e8882890161171c565b945050604086013567ffffffffffffffff811115611d9f57611d9e6115ff565b5b611dab8882890161171c565b9350506060611dbc8882890161192b565b925050608086013567ffffffffffffffff811115611ddd57611ddc6115ff565b5b611de98882890161171c565b9150509295509295909350565b600081905092915050565b6000611e0c82611793565b611e168185611df6565b9350611e268185602086016117af565b80840191505092915050565b6000611e3e8284611e01565b915081905092915050565b7f4e487b7100000000000000000000000000000000000000000000000000000000600052602260045260246000fd5b60006002820490506001821680611e9057607f821691505b602082108103611ea357611ea2611e49565b5b50919050565b60008190508160005260206000209050919050565b60008154611ecb81611e78565b611ed58186611df6565b94506001821660008114611ef05760018114611f0557611f38565b60ff1983168652811515820286019350611f38565b611f0e85611ea9565b60005b83811015611f3057815481890152600182019150602081019050611f11565b838801955050505b50505092915050565b6000611f4d8284611ebe565b915081905092915050565b60006020601f8301049050919050565b600082821b905092915050565b600060088302611fa57fffffffffffffffffffffffffffffffffffffffffffffffffffffffffffffffff82611f68565b611faf8683611f68565b95508019841693508086168417925050509392505050565b6000819050919050565b6000611fec611fe7611fe284611cd7565b611fc7565b611cd7565b9050919050565b6000819050919050565b61200683611fd1565b61201a61201282611ff3565b848454611f75565b825550505050565b600090565b61202f612022565b61203a818484611ffd565b505050565b5b8181101561205e57612053600082612027565b600181019050612040565b5050565b601f8211156120a35761207481611ea9565b61207d84611f58565b8101602085101561208c578190505b6120a061209885611f58565b83018261203f565b50505b505050565b600082821c905092915050565b60006120c6600019846008026120a8565b1980831691505092915050565b60006120df83836120b5565b9150826002028217905092915050565b6120f882611793565b67ffffffffffffffff8111156121115761211061161f565b5b61211b8254611e78565b612126828285612062565b600060209050601f8311600181146121595760008415612147578287015190505b61215185826120d3565b8655506121b9565b601f19841661216786611ea9565b60005b8281101561218f5784890151825560018201915060208501945060208101905061216a565b868310156121ac57848901516121a8601f8916826120b5565b8355505b6001600288020188555050505b505050505050565b6000815490506121d081611e78565b9050919050565b8181036121e55750506122bd565b6121ee826121c1565b67ffffffffffffffff8111156122075761220661161f565b5b6122118254611e78565b61221c828285612062565b6000601f83116001811461224b5760008415612239578287015490505b61224385826120d3565b8655506122b6565b601f19841661225987611ea9565b965061226486611ea9565b60005b8281101561228c57848901548255600182019150600185019450602081019050612267565b868310156122a957848901546122a5601f8916826120b5565b8355505b6001600288020188555050505b5050505050505b565b6000819050919050565b6122da6122d582611cd7565b6122bf565b82525050565b60006122ec82846122c9565b60208201915081905092915050565b7f4e487b7100000000000000000000000000000000000000000000000000000000600052603260045260246000fd5b7f4e487b7100000000000000000000000000000000000000000000000000000000600052601160045260246000fd5b600061236482611cd7565b91507fffffffffffffffffffffffffffffffffffffffffffffffffffffffffffffffff82036123965761239561232a565b5b60018201905091905056fea26469706673582212206cddd65aa7b2d08bb65bee0b7165329c365667640030e6e96225f86d64b20f5d64736f6c634300081b00333964356666346532656432396633333165383131653862303433373463393661313135396438616231313236346534653739623261353935383364666565366465313463663662323035316533626137643263633538663633386239663962366131643839303533613464653166633032353237643662383833633639336439656e6f64653a2f2f3265623331326665303837376166666663366561303432343338626265333362376234666362323733623036623162623862383632333763633739336433383337616136623533633864353662323937633833633534396332306634616336396233613964646630303831633832376439386634306665633265663365623536403137322e32302e302e363a33303330333639653834623963313335643738396236333762613435346664636637633334386233666365653037313365323438633165336564636336353230383835363361653561346664303639386637663739366238373562643830303863393139373032326537633135633336383065386237636237656336386638623333646661656e6f64653a2f2f3138383038643734303437306131346361373635343863613337363433653639383036663536326233363435336334663732653336626339663733653031626365396465356539323466346664336132353430663734386264396166653139386639303736656539656562633230306262373065393238643663663433643230403137322e32302e302e343a33303330333265623331326665303837376166666663366561303432343338626265333362376234666362323733623036623162623862383632333763633739336433383337616136623533633864353662323937633833633534396332306634616336396233613964646630303831633832376439386634306665633265663365623536656e6f64653a2f2f3964356666346532656432396633333165383131653862303433373463393661313135396438616231313236346534653739623261353935383364666565366465313463663662323035316533626137643263633538663633386239663962366131643839303533613464653166633032353237643662383833633639336439403137322e32302e302e353a3330333033656e6f64653a2f2f3639653834623963313335643738396236333762613435346664636637633334386233666365653037313365323438633165336564636336353230383835363361653561346664303639386637663739366238373562643830303863393139373032326537633135633336383065386237636237656336386638623333646661403137322e32302e302e333a33303330333138383038643734303437306131346361373635343863613337363433653639383036663536326233363435336334663732653336626339663733653031626365396465356539323466346664336132353430663734386264396166653139386639303736656539656562633230306262373065393238643663663433643230",
  "linkReferences": {},
  "deployedLinkReferences": {}
}