{
  "_format": "hh-sol-artifact-1",
  "contractName": "BankAccounts",
  "sourceName": "contracts/BankAccounts.sol",
  "abi": [
    {
      "inputs": [
        {
          "internalType": "address",
          "name": "account",
          "type": "address"
        }
      ],
      "name": "accountExists",
      "outputs": [
        {
          "internalType": "bool",
          "name": "",
          "type": "bool"
        }
      ],
      "stateMutability": "view",
      "type": "function"
    },
    {
      "inputs": [
        {
          "internalType": "string",
          "name": "name",
          "type": "string"
        },
        {
          "internalType": "string",
          "name": "publicKey",
          "type": "string"
        },
        {
          "internalType": "string",
          "name": "enode",
          "type": "string"
        },
        {
          "internalType": "address",
          "name": "account",
          "type": "address"
        }
      ],
      "name": "addNode",
      "outputs": [],
      "stateMutability": "nonpayable",
      "type": "function"
    },
    {
      "inputs": [],
      "name": "bankNodeCount",
      "outputs": [
        {
          "internalType": "uint256",
          "name": "",
          "type": "uint256"
        }
      ],
      "stateMutability": "view",
      "type": "function"
    },
    {
      "inputs": [
        {
          "internalType": "string",
          "name": "",
          "type": "string"
        }
      ],
      "name": "bankNodes",
      "outputs": [
        {
          "internalType": "string",
          "name": "name",
          "type": "string"
        },
        {
          "internalType": "address",
          "name": "account",
          "type": "address"
        },
        {
          "internalType": "string",
          "name": "publicKey",
          "type": "string"
        },
        {
          "internalType": "string",
          "name": "enode",
          "type": "string"
        }
      ],
      "stateMutability": "view",
      "type": "function"
    },
    {
      "inputs": [],
      "name": "getAllBankNodes",
      "outputs": [
        {
          "components": [
            {
              "internalType": "string",
              "name": "name",
              "type": "string"
            },
            {
              "internalType": "address",
              "name": "account",
              "type": "address"
            },
            {
              "internalType": "string",
              "name": "publicKey",
              "type": "string"
            },
            {
              "internalType": "string",
              "name": "enode",
              "type": "string"
            }
          ],
          "internalType": "struct BankAccounts.BankNode[]",
          "name": "",
          "type": "tuple[]"
        }
      ],
      "stateMutability": "view",
      "type": "function"
    },
    {
      "inputs": [],
      "name": "getAllEnodes",
      "outputs": [
        {
          "internalType": "string[]",
          "name": "",
          "type": "string[]"
        }
      ],
      "stateMutability": "view",
      "type": "function"
    },
    {
      "inputs": [
        {
          "internalType": "string",
          "name": "publicKey",
          "type": "string"
        }
      ],
      "name": "getNode",
      "outputs": [
        {
          "components": [
            {
              "internalType": "string",
              "name": "name",
              "type": "string"
            },
            {
              "internalType": "address",
              "name": "account",
              "type": "address"
            },
            {
              "internalType": "string",
              "name": "publicKey",
              "type": "string"
            },
            {
              "internalType": "string",
              "name": "enode",
              "type": "string"
            }
          ],
          "internalType": "struct BankAccounts.BankNode",
          "name": "",
          "type": "tuple"
        }
      ],
      "stateMutability": "view",
      "type": "function"
    },
    {
      "inputs": [
        {
          "internalType": "string",
          "name": "publicKey",
          "type": "string"
        }
      ],
      "name": "getNodeAccount",
      "outputs": [
        {
          "internalType": "address",
          "name": "",
          "type": "address"
        }
      ],
      "stateMutability": "view",
      "type": "function"
    },
    {
      "inputs": [
        {
          "internalType": "string",
          "name": "publicKey",
          "type": "string"
        }
      ],
      "name": "getNodeEnode",
      "outputs": [
        {
          "internalType": "string",
          "name": "",
          "type": "string"
        }
      ],
      "stateMutability": "view",
      "type": "function"
    },
    {
      "inputs": [
        {
          "internalType": "string",
          "name": "publicKey",
          "type": "string"
        }
      ],
      "name": "getNodeName",
      "outputs": [
        {
          "internalType": "string",
          "name": "",
          "type": "string"
        }
      ],
      "stateMutability": "view",
      "type": "function"
    },
    {
      "inputs": [
        {
          "internalType": "string",
          "name": "publicKey",
          "type": "string"
        }
      ],
      "name": "nodeExists",
      "outputs": [
        {
          "internalType": "bool",
          "name": "",
          "type": "bool"
        }
      ],
      "stateMutability": "view",
      "type": "function"
    },
    {
      "inputs": [
        {
          "internalType": "string",
          "name": "publicKey",
          "type": "string"
        },
        {
          "internalType": "string",
          "name": "name",
          "type": "string"
        }
      ],
      "name": "nodeExistsByName",
      "outputs": [
        {
          "internalType": "bool",
          "name": "",
          "type": "bool"
        }
      ],
      "stateMutability": "view",
      "type": "function"
    },
    {
      "inputs": [
        {
          "internalType": "string",
          "name": "publicKey",
          "type": "string"
        }
      ],
      "name": "removeNode",
      "outputs": [],
      "stateMutability": "nonpayable",
      "type": "function"
    },
    {
      "inputs": [
        {
          "internalType": "string",
          "name": "publicKey",
          "type": "string"
        },
        {
          "internalType": "address",
          "name": "account",
          "type": "address"
        }
      ],
      "name": "updateNodeAccount",
      "outputs": [],
      "stateMutability": "nonpayable",
      "type": "function"
    },
    {
      "inputs": [
        {
          "internalType": "string",
          "name": "publicKey",
          "type": "string"
        },
        {
          "internalType": "string",
          "name": "enode",
          "type": "string"
        }
      ],
      "name": "updateNodeEnode",
      "outputs": [],
      "stateMutability": "nonpayable",
      "type": "function"
    },
    {
      "inputs": [
        {
          "internalType": "string",
          "name": "publicKey",
          "type": "string"
        },
        {
          "internalType": "string",
          "name": "name",
          "type": "string"
        }
      ],
      "name": "updateNodeName",
      "outputs": [],
      "stateMutability": "nonpayable",
      "type": "function"
    },
    {
      "inputs": [
        {
          "internalType": "string",
          "name": "oldPublicKey",
          "type": "string"
        },
        {
          "internalType": "string",
          "name": "newPublicKey",
          "type": "string"
        }
      ],
      "name": "updateNodePrivateKey",
      "outputs": [],
      "stateMutability": "nonpayable",
      "type": "function"
    }
  ],
  "bytecode": "0x6080604052348015600f57600080fd5b506122678061001f6000396000f3fe608060405234801561001057600080fd5b506004361061010b5760003560e01c806375cd51ed116100a2578063a824d05411610071578063a824d054146102c8578063a85ef9c8146102fb578063b8a89b351461032b578063bfcc60a214610347578063c9a3f180146103775761010b565b806375cd51ed1461021a5780638ad0d81d1461024a5780639428522a1461026857806397615705146102985761010b565b806345a0a134116100de57806345a0a134146101a85780634665cb07146101c457806357518b30146101e05780635c6698e0146101fe5761010b565b8063172f1b4f146101105780631b128f61146101405780631cd0b2061461017057806325dcb86f1461018c575b600080fd5b61012a6004803603810190610125919061156f565b610395565b6040516101379190611637565b60405180910390f35b61015a6004803603810190610155919061156f565b610448565b6040516101679190611674565b60405180910390f35b61018a6004803603810190610185919061168f565b6104c0565b005b6101a660048036038101906101a19190611765565b6104f3565b005b6101c260048036038101906101bd919061168f565b610557565b005b6101de60048036038101906101d9919061156f565b61058a565b005b6101e8610605565b6040516101f591906118cd565b60405180910390f35b6102186004803603810190610213919061168f565b610779565b005b610234600480360381019061022f91906118ef565b6108f1565b6040516102419190611674565b60405180910390f35b6102526109b8565b60405161025f9190611a5e565b60405180910390f35b610282600480360381019061027d919061156f565b610cbd565b60405161028f9190611af1565b60405180910390f35b6102b260048036038101906102ad919061156f565b610f01565b6040516102bf9190611637565b60405180910390f35b6102e260048036038101906102dd919061156f565b610fb4565b6040516102f29493929190611b22565b60405180910390f35b6103156004803603810190610310919061156f565b6111b2565b6040516103229190611b7c565b60405180910390f35b61034560048036038101906103409190611b97565b6111fc565b005b610361600480360381019061035c919061168f565b6112fb565b60405161036e9190611674565b60405180910390f35b61037f611374565b60405161038c9190611c6b565b60405180910390f35b60606000826040516103a79190611cc2565b908152602001604051809103902060000180546103c390611d08565b80601f01602080910402602001604051908101604052809291908181526020018280546103ef90611d08565b801561043c5780601f106104115761010080835404028352916020019161043c565b820191906000526020600020905b81548152906001019060200180831161041f57829003601f168201915b50505050509050919050565b60008160405160200161045b9190611cc2565b604051602081830303815290604052805190602001206000836040516104819190611cc2565b90815260200160405180910390206002016040516020016104a29190611dd1565b60405160208183030381529060405280519060200120149050919050565b806000836040516104d19190611cc2565b908152602001604051809103902060000190816104ee9190611f7f565b505050565b806000836040516105049190611cc2565b908152602001604051809103902060010160006101000a81548173ffffffffffffffffffffffffffffffffffffffff021916908373ffffffffffffffffffffffffffffffffffffffff1602179055505050565b806000836040516105689190611cc2565b908152602001604051809103902060030190816105859190611f7f565b505050565b60008160405161059a9190611cc2565b9081526020016040518091039020600080820160006105b9919061137a565b6001820160006101000a81549073ffffffffffffffffffffffffffffffffffffffff02191690556002820160006105f0919061137a565b600382016000610600919061137a565b505050565b6060600060015467ffffffffffffffff81111561062557610624611444565b5b60405190808252806020026020018201604052801561065857816020015b60608152602001906001900390816106435790505b5090506000805b600154811015610770576000808260405160200161067d9190612072565b6040516020818303038152906040526040516106999190611cc2565b908152602001604051809103902090508060030180546106b890611d08565b80601f01602080910402602001604051908101604052809291908181526020018280546106e490611d08565b80156107315780601f1061070657610100808354040283529160200191610731565b820191906000526020600020905b81548152906001019060200180831161071457829003601f168201915b50505050508484815181106107495761074861208d565b5b6020026020010181905250828061075f906120eb565b93505050808060010191505061065f565b50819250505090565b6000808360405161078a9190611cc2565b90815260200160405180910390209050818160020190816107ab9190611f7f565b50806000836040516107bd9190611cc2565b9081526020016040518091039020600082018160000190816107df9190612149565b506001820160009054906101000a900473ffffffffffffffffffffffffffffffffffffffff168160010160006101000a81548173ffffffffffffffffffffffffffffffffffffffff021916908373ffffffffffffffffffffffffffffffffffffffff1602179055506002820181600201908161085b9190612149565b50600382018160030190816108709190612149565b509050506000836040516108849190611cc2565b9081526020016040518091039020600080820160006108a3919061137a565b6001820160006101000a81549073ffffffffffffffffffffffffffffffffffffffff02191690556002820160006108da919061137a565b6003820160006108ea919061137a565b5050505050565b600080600090505b6001548110156109ad578273ffffffffffffffffffffffffffffffffffffffff1660008260405160200161092d9190612072565b6040516020818303038152906040526040516109499190611cc2565b908152602001604051809103902060010160009054906101000a900473ffffffffffffffffffffffffffffffffffffffff1673ffffffffffffffffffffffffffffffffffffffff16036109a05760019150506109b3565b80806001019150506108f9565b50600090505b919050565b6060600060015467ffffffffffffffff8111156109d8576109d7611444565b5b604051908082528060200260200182016040528015610a1157816020015b6109fe6113ba565b8152602001906001900390816109f65790505b5090506000805b600154811015610cb45760008082604051602001610a369190612072565b604051602081830303815290604052604051610a529190611cc2565b9081526020016040518091039020905080604051806080016040529081600082018054610a7e90611d08565b80601f0160208091040260200160405190810160405280929190818152602001828054610aaa90611d08565b8015610af75780601f10610acc57610100808354040283529160200191610af7565b820191906000526020600020905b815481529060010190602001808311610ada57829003601f168201915b505050505081526020016001820160009054906101000a900473ffffffffffffffffffffffffffffffffffffffff1673ffffffffffffffffffffffffffffffffffffffff1673ffffffffffffffffffffffffffffffffffffffff168152602001600282018054610b6690611d08565b80601f0160208091040260200160405190810160405280929190818152602001828054610b9290611d08565b8015610bdf5780601f10610bb457610100808354040283529160200191610bdf565b820191906000526020600020905b815481529060010190602001808311610bc257829003601f168201915b50505050508152602001600382018054610bf890611d08565b80601f0160208091040260200160405190810160405280929190818152602001828054610c2490611d08565b8015610c715780601f10610c4657610100808354040283529160200191610c71565b820191906000526020600020905b815481529060010190602001808311610c5457829003601f168201915b505050505081525050848481518110610c8d57610c8c61208d565b5b60200260200101819052508280610ca3906120eb565b935050508080600101915050610a18565b50819250505090565b610cc56113ba565b600082604051610cd59190611cc2565b9081526020016040518091039020604051806080016040529081600082018054610cfe90611d08565b80601f0160208091040260200160405190810160405280929190818152602001828054610d2a90611d08565b8015610d775780601f10610d4c57610100808354040283529160200191610d77565b820191906000526020600020905b815481529060010190602001808311610d5a57829003601f168201915b505050505081526020016001820160009054906101000a900473ffffffffffffffffffffffffffffffffffffffff1673ffffffffffffffffffffffffffffffffffffffff1673ffffffffffffffffffffffffffffffffffffffff168152602001600282018054610de690611d08565b80601f0160208091040260200160405190810160405280929190818152602001828054610e1290611d08565b8015610e5f5780601f10610e3457610100808354040283529160200191610e5f565b820191906000526020600020905b815481529060010190602001808311610e4257829003601f168201915b50505050508152602001600382018054610e7890611d08565b80601f0160208091040260200160405190810160405280929190818152602001828054610ea490611d08565b8015610ef15780601f10610ec657610100808354040283529160200191610ef1565b820191906000526020600020905b815481529060010190602001808311610ed457829003601f168201915b5050505050815250509050919050565b6060600082604051610f139190611cc2565b90815260200160405180910390206003018054610f2f90611d08565b80601f0160208091040260200160405190810160405280929190818152602001828054610f5b90611d08565b8015610fa85780601f10610f7d57610100808354040283529160200191610fa8565b820191906000526020600020905b815481529060010190602001808311610f8b57829003601f168201915b50505050509050919050565b600081805160208101820180518482526020830160208501208183528095505050505050600091509050806000018054610fed90611d08565b80601f016020809104026020016040519081016040528092919081815260200182805461101990611d08565b80156110665780601f1061103b57610100808354040283529160200191611066565b820191906000526020600020905b81548152906001019060200180831161104957829003601f168201915b5050505050908060010160009054906101000a900473ffffffffffffffffffffffffffffffffffffffff16908060020180546110a190611d08565b80601f01602080910402602001604051908101604052809291908181526020018280546110cd90611d08565b801561111a5780601f106110ef5761010080835404028352916020019161111a565b820191906000526020600020905b8154815290600101906020018083116110fd57829003601f168201915b50505050509080600301805461112f90611d08565b80601f016020809104026020016040519081016040528092919081815260200182805461115b90611d08565b80156111a85780601f1061117d576101008083540402835291602001916111a8565b820191906000526020600020905b81548152906001019060200180831161118b57829003601f168201915b5050505050905084565b600080826040516111c39190611cc2565b908152602001604051809103902060010160009054906101000a900473ffffffffffffffffffffffffffffffffffffffff169050919050565b60405180608001604052808581526020018273ffffffffffffffffffffffffffffffffffffffff168152602001848152602001838152506000846040516112439190611cc2565b908152602001604051809103902060008201518160000190816112669190611f7f565b5060208201518160010160006101000a81548173ffffffffffffffffffffffffffffffffffffffff021916908373ffffffffffffffffffffffffffffffffffffffff16021790555060408201518160020190816112c39190611f7f565b5060608201518160030190816112d99190611f7f565b50905050600160008154809291906112f0906120eb565b919050555050505050565b60008160405160200161130e9190611cc2565b604051602081830303815290604052805190602001206000846040516113349190611cc2565b90815260200160405180910390206000016040516020016113559190611dd1565b6040516020818303038152906040528051906020012014905092915050565b60015481565b50805461138690611d08565b6000825580601f1061139857506113b7565b601f0160209004906000526020600020908101906113b691906113f8565b5b50565b604051806080016040528060608152602001600073ffffffffffffffffffffffffffffffffffffffff16815260200160608152602001606081525090565b5b808211156114115760008160009055506001016113f9565b5090565b6000604051905090565b600080fd5b600080fd5b600080fd5b600080fd5b6000601f19601f8301169050919050565b7f4e487b7100000000000000000000000000000000000000000000000000000000600052604160045260246000fd5b61147c82611433565b810181811067ffffffffffffffff8211171561149b5761149a611444565b5b80604052505050565b60006114ae611415565b90506114ba8282611473565b919050565b600067ffffffffffffffff8211156114da576114d9611444565b5b6114e382611433565b9050602081019050919050565b82818337600083830152505050565b600061151261150d846114bf565b6114a4565b90508281526020810184848401111561152e5761152d61142e565b5b6115398482856114f0565b509392505050565b600082601f83011261155657611555611429565b5b81356115668482602086016114ff565b91505092915050565b6000602082840312156115855761158461141f565b5b600082013567ffffffffffffffff8111156115a3576115a2611424565b5b6115af84828501611541565b91505092915050565b600081519050919050565b600082825260208201905092915050565b60005b838110156115f25780820151818401526020810190506115d7565b60008484015250505050565b6000611609826115b8565b61161381856115c3565b93506116238185602086016115d4565b61162c81611433565b840191505092915050565b6000602082019050818103600083015261165181846115fe565b905092915050565b60008115159050919050565b61166e81611659565b82525050565b60006020820190506116896000830184611665565b92915050565b600080604083850312156116a6576116a561141f565b5b600083013567ffffffffffffffff8111156116c4576116c3611424565b5b6116d085828601611541565b925050602083013567ffffffffffffffff8111156116f1576116f0611424565b5b6116fd85828601611541565b9150509250929050565b600073ffffffffffffffffffffffffffffffffffffffff82169050919050565b600061173282611707565b9050919050565b61174281611727565b811461174d57600080fd5b50565b60008135905061175f81611739565b92915050565b6000806040838503121561177c5761177b61141f565b5b600083013567ffffffffffffffff81111561179a57611799611424565b5b6117a685828601611541565b92505060206117b785828601611750565b9150509250929050565b600081519050919050565b600082825260208201905092915050565b6000819050602082019050919050565b600082825260208201905092915050565b6000611809826115b8565b61181381856117ed565b93506118238185602086016115d4565b61182c81611433565b840191505092915050565b600061184383836117fe565b905092915050565b6000602082019050919050565b6000611863826117c1565b61186d81856117cc565b93508360208202850161187f856117dd565b8060005b858110156118bb578484038952815161189c8582611837565b94506118a78361184b565b925060208a01995050600181019050611883565b50829750879550505050505092915050565b600060208201905081810360008301526118e78184611858565b905092915050565b6000602082840312156119055761190461141f565b5b600061191384828501611750565b91505092915050565b600081519050919050565b600082825260208201905092915050565b6000819050602082019050919050565b61195181611727565b82525050565b6000608083016000830151848203600086015261197482826117fe565b91505060208301516119896020860182611948565b50604083015184820360408601526119a182826117fe565b915050606083015184820360608601526119bb82826117fe565b9150508091505092915050565b60006119d48383611957565b905092915050565b6000602082019050919050565b60006119f48261191c565b6119fe8185611927565b935083602082028501611a1085611938565b8060005b85811015611a4c5784840389528151611a2d85826119c8565b9450611a38836119dc565b925060208a01995050600181019050611a14565b50829750879550505050505092915050565b60006020820190508181036000830152611a7881846119e9565b905092915050565b60006080830160008301518482036000860152611a9d82826117fe565b9150506020830151611ab26020860182611948565b5060408301518482036040860152611aca82826117fe565b91505060608301518482036060860152611ae482826117fe565b9150508091505092915050565b60006020820190508181036000830152611b0b8184611a80565b905092915050565b611b1c81611727565b82525050565b60006080820190508181036000830152611b3c81876115fe565b9050611b4b6020830186611b13565b8181036040830152611b5d81856115fe565b90508181036060830152611b7181846115fe565b905095945050505050565b6000602082019050611b916000830184611b13565b92915050565b60008060008060808587031215611bb157611bb061141f565b5b600085013567ffffffffffffffff811115611bcf57611bce611424565b5b611bdb87828801611541565b945050602085013567ffffffffffffffff811115611bfc57611bfb611424565b5b611c0887828801611541565b935050604085013567ffffffffffffffff811115611c2957611c28611424565b5b611c3587828801611541565b9250506060611c4687828801611750565b91505092959194509250565b6000819050919050565b611c6581611c52565b82525050565b6000602082019050611c806000830184611c5c565b92915050565b600081905092915050565b6000611c9c826115b8565b611ca68185611c86565b9350611cb68185602086016115d4565b80840191505092915050565b6000611cce8284611c91565b915081905092915050565b7f4e487b7100000000000000000000000000000000000000000000000000000000600052602260045260246000fd5b60006002820490506001821680611d2057607f821691505b602082108103611d3357611d32611cd9565b5b50919050565b60008190508160005260206000209050919050565b60008154611d5b81611d08565b611d658186611c86565b94506001821660008114611d805760018114611d9557611dc8565b60ff1983168652811515820286019350611dc8565b611d9e85611d39565b60005b83811015611dc057815481890152600182019150602081019050611da1565b838801955050505b50505092915050565b6000611ddd8284611d4e565b915081905092915050565b60006020601f8301049050919050565b600082821b905092915050565b600060088302611e357fffffffffffffffffffffffffffffffffffffffffffffffffffffffffffffffff82611df8565b611e3f8683611df8565b95508019841693508086168417925050509392505050565b6000819050919050565b6000611e7c611e77611e7284611c52565b611e57565b611c52565b9050919050565b6000819050919050565b611e9683611e61565b611eaa611ea282611e83565b848454611e05565b825550505050565b600090565b611ebf611eb2565b611eca818484611e8d565b505050565b5b81811015611eee57611ee3600082611eb7565b600181019050611ed0565b5050565b601f821115611f3357611f0481611d39565b611f0d84611de8565b81016020851015611f1c578190505b611f30611f2885611de8565b830182611ecf565b50505b505050565b600082821c905092915050565b6000611f5660001984600802611f38565b1980831691505092915050565b6000611f6f8383611f45565b9150826002028217905092915050565b611f88826115b8565b67ffffffffffffffff811115611fa157611fa0611444565b5b611fab8254611d08565b611fb6828285611ef2565b600060209050601f831160018114611fe95760008415611fd7578287015190505b611fe18582611f63565b865550612049565b601f198416611ff786611d39565b60005b8281101561201f57848901518255600182019150602085019450602081019050611ffa565b8683101561203c5784890151612038601f891682611f45565b8355505b6001600288020188555050505b505050505050565b6000819050919050565b61206c61206782611c52565b612051565b82525050565b600061207e828461205b565b60208201915081905092915050565b7f4e487b7100000000000000000000000000000000000000000000000000000000600052603260045260246000fd5b7f4e487b7100000000000000000000000000000000000000000000000000000000600052601160045260246000fd5b60006120f682611c52565b91507fffffffffffffffffffffffffffffffffffffffffffffffffffffffffffffffff8203612128576121276120bc565b5b600182019050919050565b60008154905061214281611d08565b9050919050565b81810361215757505061222f565b61216082612133565b67ffffffffffffffff81111561217957612178611444565b5b6121838254611d08565b61218e828285611ef2565b6000601f8311600181146121bd57600084156121ab578287015490505b6121b58582611f63565b865550612228565b601f1984166121cb87611d39565b96506121d686611d39565b60005b828110156121fe578489015482556001820191506001850194506020810190506121d9565b8683101561221b5784890154612217601f891682611f45565b8355505b6001600288020188555050505b5050505050505b56fea264697066735822122051231f1816f8cf9ebd245f8b7eff0c66873a6e4b7cd1456a99c33a38a19e76d964736f6c634300081b0033",
  "linkReferences": {},
  "deployedLinkReferences": {}
}