{
  "_format": "hh-sol-artifact-1",
  "contractName": "BankAccounts",
  "sourceName": "contracts/BankAccounts.sol",
  "abi": [
    {
      "inputs": [
        {
          "internalType": "string",
          "name": "publicKey",
          "type": "string"
        },
        {
          "internalType": "address",
          "name": "account",
          "type": "address"
        }
      ],
      "name": "accountExists",
      "outputs": [
        {
          "internalType": "bool",
          "name": "",
          "type": "bool"
        }
      ],
      "stateMutability": "view",
      "type": "function"
    },
    {
      "inputs": [
        {
          "internalType": "string",
          "name": "publicKey",
          "type": "string"
        },
        {
          "internalType": "address",
          "name": "account",
          "type": "address"
        }
      ],
      "name": "addAccount",
      "outputs": [],
      "stateMutability": "nonpayable",
      "type": "function"
    },
    {
      "inputs": [
        {
          "internalType": "string",
          "name": "name",
          "type": "string"
        },
        {
          "internalType": "string",
          "name": "publicKey",
          "type": "string"
        },
        {
          "internalType": "string",
          "name": "enode",
          "type": "string"
        }
      ],
      "name": "addNode",
      "outputs": [],
      "stateMutability": "nonpayable",
      "type": "function"
    },
    {
      "inputs": [],
      "name": "bankNodeCount",
      "outputs": [
        {
          "internalType": "uint256",
          "name": "",
          "type": "uint256"
        }
      ],
      "stateMutability": "view",
      "type": "function"
    },
    {
      "inputs": [
        {
          "internalType": "string",
          "name": "",
          "type": "string"
        }
      ],
      "name": "bankNodes",
      "outputs": [
        {
          "internalType": "string",
          "name": "name",
          "type": "string"
        },
        {
          "internalType": "string",
          "name": "publicKey",
          "type": "string"
        },
        {
          "internalType": "string",
          "name": "enode",
          "type": "string"
        }
      ],
      "stateMutability": "view",
      "type": "function"
    },
    {
      "inputs": [],
      "name": "getAllBankNodes",
      "outputs": [
        {
          "components": [
            {
              "internalType": "string",
              "name": "name",
              "type": "string"
            },
            {
              "internalType": "address[]",
              "name": "accounts",
              "type": "address[]"
            },
            {
              "internalType": "string",
              "name": "publicKey",
              "type": "string"
            },
            {
              "internalType": "string",
              "name": "enode",
              "type": "string"
            }
          ],
          "internalType": "struct BankAccounts.BankNode[]",
          "name": "",
          "type": "tuple[]"
        }
      ],
      "stateMutability": "view",
      "type": "function"
    },
    {
      "inputs": [],
      "name": "getAllEnodes",
      "outputs": [
        {
          "internalType": "string[]",
          "name": "",
          "type": "string[]"
        }
      ],
      "stateMutability": "view",
      "type": "function"
    },
    {
      "inputs": [
        {
          "internalType": "string",
          "name": "publicKey",
          "type": "string"
        }
      ],
      "name": "getNode",
      "outputs": [
        {
          "components": [
            {
              "internalType": "string",
              "name": "name",
              "type": "string"
            },
            {
              "internalType": "address[]",
              "name": "accounts",
              "type": "address[]"
            },
            {
              "internalType": "string",
              "name": "publicKey",
              "type": "string"
            },
            {
              "internalType": "string",
              "name": "enode",
              "type": "string"
            }
          ],
          "internalType": "struct BankAccounts.BankNode",
          "name": "",
          "type": "tuple"
        }
      ],
      "stateMutability": "view",
      "type": "function"
    },
    {
      "inputs": [
        {
          "internalType": "string",
          "name": "publicKey",
          "type": "string"
        }
      ],
      "name": "getNodeAccounts",
      "outputs": [
        {
          "internalType": "address[]",
          "name": "",
          "type": "address[]"
        }
      ],
      "stateMutability": "view",
      "type": "function"
    },
    {
      "inputs": [
        {
          "internalType": "string",
          "name": "publicKey",
          "type": "string"
        }
      ],
      "name": "getNodeEnode",
      "outputs": [
        {
          "internalType": "string",
          "name": "",
          "type": "string"
        }
      ],
      "stateMutability": "view",
      "type": "function"
    },
    {
      "inputs": [
        {
          "internalType": "string",
          "name": "publicKey",
          "type": "string"
        }
      ],
      "name": "getNodeName",
      "outputs": [
        {
          "internalType": "string",
          "name": "",
          "type": "string"
        }
      ],
      "stateMutability": "view",
      "type": "function"
    },
    {
      "inputs": [
        {
          "internalType": "string",
          "name": "publicKey",
          "type": "string"
        }
      ],
      "name": "nodeExists",
      "outputs": [
        {
          "internalType": "bool",
          "name": "",
          "type": "bool"
        }
      ],
      "stateMutability": "view",
      "type": "function"
    },
    {
      "inputs": [
        {
          "internalType": "string",
          "name": "publicKey",
          "type": "string"
        },
        {
          "internalType": "string",
          "name": "name",
          "type": "string"
        }
      ],
      "name": "nodeExistsByName",
      "outputs": [
        {
          "internalType": "bool",
          "name": "",
          "type": "bool"
        }
      ],
      "stateMutability": "view",
      "type": "function"
    },
    {
      "inputs": [
        {
          "internalType": "string",
          "name": "publicKey",
          "type": "string"
        },
        {
          "internalType": "address",
          "name": "account",
          "type": "address"
        }
      ],
      "name": "removeAccount",
      "outputs": [],
      "stateMutability": "nonpayable",
      "type": "function"
    },
    {
      "inputs": [
        {
          "internalType": "string",
          "name": "publicKey",
          "type": "string"
        }
      ],
      "name": "removeNode",
      "outputs": [],
      "stateMutability": "nonpayable",
      "type": "function"
    },
    {
      "inputs": [
        {
          "internalType": "string",
          "name": "publicKey",
          "type": "string"
        },
        {
          "internalType": "string",
          "name": "enode",
          "type": "string"
        }
      ],
      "name": "updateNodeEnode",
      "outputs": [],
      "stateMutability": "nonpayable",
      "type": "function"
    },
    {
      "inputs": [
        {
          "internalType": "string",
          "name": "publicKey",
          "type": "string"
        },
        {
          "internalType": "string",
          "name": "name",
          "type": "string"
        }
      ],
      "name": "updateNodeName",
      "outputs": [],
      "stateMutability": "nonpayable",
      "type": "function"
    },
    {
      "inputs": [
        {
          "internalType": "string",
          "name": "oldPublicKey",
          "type": "string"
        },
        {
          "internalType": "string",
          "name": "newPublicKey",
          "type": "string"
        }
      ],
      "name": "updateNodePrivateKey",
      "outputs": [],
      "stateMutability": "nonpayable",
      "type": "function"
    }
  ],
  "bytecode": "0x6080604052348015600f57600080fd5b506127ab8061001f6000396000f3fe608060405234801561001057600080fd5b50600436106101165760003560e01c806358fc9caa116100a25780639428522a116100715780639428522a146102db578063976157051461030b578063a824d0541461033b578063bfcc60a21461036d578063c9a3f1801461039d57610116565b806358fc9caa146102555780635c6698e0146102715780637dcae6aa1461028d5780638ad0d81d146102bd57610116565b80631cd0b206116100e95780631cd0b206146101b357806333742942146101cf57806345a0a134146101ff5780634665cb071461021b57806357518b301461023757610116565b806303f1bc4f1461011b5780630812acdf14610137578063172f1b4f146101535780631b128f6114610183575b600080fd5b61013560048036038101906101309190611952565b6103bb565b005b610151600480360381019061014c9190611a57565b6104c2565b005b61016d60048036038101906101689190611ab3565b6105f1565b60405161017a9190611b7b565b60405180910390f35b61019d60048036038101906101989190611ab3565b6106a4565b6040516101aa9190611bb8565b60405180910390f35b6101cd60048036038101906101c89190611bd3565b61071c565b005b6101e960048036038101906101e49190611ab3565b61074f565b6040516101f69190611d09565b60405180910390f35b61021960048036038101906102149190611bd3565b6107fe565b005b61023560048036038101906102309190611ab3565b610831565b005b61023f6108ad565b60405161024c9190611e37565b60405180910390f35b61026f600480360381019061026a9190611a57565b610a21565b005b61028b60048036038101906102869190611bd3565b610bd1565b005b6102a760048036038101906102a29190611a57565b610ce2565b6040516102b49190611bb8565b60405180910390f35b6102c5610db3565b6040516102d29190612002565b60405180910390f35b6102f560048036038101906102f09190611ab3565b6110f0565b604051610302919061209c565b60405180910390f35b61032560048036038101906103209190611ab3565b61136c565b6040516103329190611b7b565b60405180910390f35b61035560048036038101906103509190611ab3565b61141f565b604051610364939291906120be565b60405180910390f35b61038760048036038101906103829190611bd3565b6115f7565b6040516103949190611bb8565b60405180910390f35b6103a5611670565b6040516103b29190612123565b60405180910390f35b6040518060800160405280848152602001600067ffffffffffffffff8111156103e7576103e6611827565b5b6040519080825280602002602001820160405280156104155781602001602082028036833780820191505090505b50815260200183815260200182815250600083604051610435919061217a565b90815260200160405180910390206000820151816000019081610458919061239d565b506020820151816001019080519060200190610475929190611676565b50604082015181600201908161048b919061239d565b5060608201518160030190816104a1919061239d565b50905050600160008154809291906104b89061249e565b9190505550505050565b600080836040516104d3919061217a565b908152602001604051809103902090506000805b826001018054905081101561057f578373ffffffffffffffffffffffffffffffffffffffff16836001018281548110610523576105226124e6565b5b9060005260206000200160009054906101000a900473ffffffffffffffffffffffffffffffffffffffff1673ffffffffffffffffffffffffffffffffffffffff1603610572576001915061057f565b80806001019150506104e7565b50806105eb5781600101839080600181540180825580915050600190039060005260206000200160009091909190916101000a81548173ffffffffffffffffffffffffffffffffffffffff021916908373ffffffffffffffffffffffffffffffffffffffff1602179055505b50505050565b6060600082604051610603919061217a565b9081526020016040518091039020600001805461061f906121c0565b80601f016020809104026020016040519081016040528092919081815260200182805461064b906121c0565b80156106985780601f1061066d57610100808354040283529160200191610698565b820191906000526020600020905b81548152906001019060200180831161067b57829003601f168201915b50505050509050919050565b6000816040516020016106b7919061217a565b604051602081830303815290604052805190602001206000836040516106dd919061217a565b90815260200160405180910390206002016040516020016106fe9190612598565b60405160208183030381529060405280519060200120149050919050565b8060008360405161072d919061217a565b9081526020016040518091039020600001908161074a919061239d565b505050565b6060600082604051610761919061217a565b90815260200160405180910390206001018054806020026020016040519081016040528092919081815260200182805480156107f257602002820191906000526020600020905b8160009054906101000a900473ffffffffffffffffffffffffffffffffffffffff1673ffffffffffffffffffffffffffffffffffffffff16815260200190600101908083116107a8575b50505050509050919050565b8060008360405161080f919061217a565b9081526020016040518091039020600301908161082c919061239d565b505050565b600081604051610841919061217a565b9081526020016040518091039020600080820160006108609190611700565b6001820160006108709190611740565b6002820160006108809190611700565b6003820160006108909190611700565b5050600160008154809291906108a5906125af565b919050555050565b6060600060015467ffffffffffffffff8111156108cd576108cc611827565b5b60405190808252806020026020018201604052801561090057816020015b60608152602001906001900390816108eb5790505b5090506000805b600154811015610a18576000808260405160200161092591906125f9565b604051602081830303815290604052604051610941919061217a565b90815260200160405180910390209050806003018054610960906121c0565b80601f016020809104026020016040519081016040528092919081815260200182805461098c906121c0565b80156109d95780601f106109ae576101008083540402835291602001916109d9565b820191906000526020600020905b8154815290600101906020018083116109bc57829003601f168201915b50505050508484815181106109f1576109f06124e6565b5b60200260200101819052508280610a079061249e565b935050508080600101915050610907565b50819250505090565b60008083604051610a32919061217a565b90815260200160405180910390209050600081600101905060005b8180549050811015610bca578373ffffffffffffffffffffffffffffffffffffffff16828281548110610a8357610a826124e6565b5b9060005260206000200160009054906101000a900473ffffffffffffffffffffffffffffffffffffffff1673ffffffffffffffffffffffffffffffffffffffff1603610bbd578160018380549050610adb9190612614565b81548110610aec57610aeb6124e6565b5b9060005260206000200160009054906101000a900473ffffffffffffffffffffffffffffffffffffffff16828281548110610b2a57610b296124e6565b5b9060005260206000200160006101000a81548173ffffffffffffffffffffffffffffffffffffffff021916908373ffffffffffffffffffffffffffffffffffffffff16021790555081805480610b8357610b82612648565b5b6001900381819060005260206000200160006101000a81549073ffffffffffffffffffffffffffffffffffffffff02191690559055610bca565b8080600101915050610a4d565b5050505050565b60008083604051610be2919061217a565b9081526020016040518091039020905081816002019081610c03919061239d565b5080600083604051610c15919061217a565b908152602001604051809103902060008201816000019081610c37919061268d565b506001820181600101908054610c4e929190611761565b5060028201816002019081610c63919061268d565b5060038201816003019081610c78919061268d565b50905050600083604051610c8c919061217a565b908152602001604051809103902060008082016000610cab9190611700565b600182016000610cbb9190611740565b600282016000610ccb9190611700565b600382016000610cdb9190611700565b5050505050565b600080600084604051610cf5919061217a565b90815260200160405180910390209050600081600101905060005b8180549050811015610da5578473ffffffffffffffffffffffffffffffffffffffff16828281548110610d4657610d456124e6565b5b9060005260206000200160009054906101000a900473ffffffffffffffffffffffffffffffffffffffff1673ffffffffffffffffffffffffffffffffffffffff1603610d985760019350505050610dad565b8080600101915050610d10565b506000925050505b92915050565b6060600060015467ffffffffffffffff811115610dd357610dd2611827565b5b604051908082528060200260200182016040528015610e0c57816020015b610df96117b3565b815260200190600190039081610df15790505b5090506000805b6001548110156110e75760008082604051602001610e3191906125f9565b604051602081830303815290604052604051610e4d919061217a565b9081526020016040518091039020905080604051806080016040529081600082018054610e79906121c0565b80601f0160208091040260200160405190810160405280929190818152602001828054610ea5906121c0565b8015610ef25780601f10610ec757610100808354040283529160200191610ef2565b820191906000526020600020905b815481529060010190602001808311610ed557829003601f168201915b5050505050815260200160018201805480602002602001604051908101604052809291908181526020018280548015610f8057602002820191906000526020600020905b8160009054906101000a900473ffffffffffffffffffffffffffffffffffffffff1673ffffffffffffffffffffffffffffffffffffffff1681526020019060010190808311610f36575b50505050508152602001600282018054610f99906121c0565b80601f0160208091040260200160405190810160405280929190818152602001828054610fc5906121c0565b80156110125780601f10610fe757610100808354040283529160200191611012565b820191906000526020600020905b815481529060010190602001808311610ff557829003601f168201915b5050505050815260200160038201805461102b906121c0565b80601f0160208091040260200160405190810160405280929190818152602001828054611057906121c0565b80156110a45780601f10611079576101008083540402835291602001916110a4565b820191906000526020600020905b81548152906001019060200180831161108757829003601f168201915b5050505050815250508484815181106110c0576110bf6124e6565b5b602002602001018190525082806110d69061249e565b935050508080600101915050610e13565b50819250505090565b6110f86117b3565b600082604051611108919061217a565b9081526020016040518091039020604051806080016040529081600082018054611131906121c0565b80601f016020809104026020016040519081016040528092919081815260200182805461115d906121c0565b80156111aa5780601f1061117f576101008083540402835291602001916111aa565b820191906000526020600020905b81548152906001019060200180831161118d57829003601f168201915b505050505081526020016001820180548060200260200160405190810160405280929190818152602001828054801561123857602002820191906000526020600020905b8160009054906101000a900473ffffffffffffffffffffffffffffffffffffffff1673ffffffffffffffffffffffffffffffffffffffff16815260200190600101908083116111ee575b50505050508152602001600282018054611251906121c0565b80601f016020809104026020016040519081016040528092919081815260200182805461127d906121c0565b80156112ca5780601f1061129f576101008083540402835291602001916112ca565b820191906000526020600020905b8154815290600101906020018083116112ad57829003601f168201915b505050505081526020016003820180546112e3906121c0565b80601f016020809104026020016040519081016040528092919081815260200182805461130f906121c0565b801561135c5780601f106113315761010080835404028352916020019161135c565b820191906000526020600020905b81548152906001019060200180831161133f57829003601f168201915b5050505050815250509050919050565b606060008260405161137e919061217a565b9081526020016040518091039020600301805461139a906121c0565b80601f01602080910402602001604051908101604052809291908181526020018280546113c6906121c0565b80156114135780601f106113e857610100808354040283529160200191611413565b820191906000526020600020905b8154815290600101906020018083116113f657829003601f168201915b50505050509050919050565b600081805160208101820180518482526020830160208501208183528095505050505050600091509050806000018054611458906121c0565b80601f0160208091040260200160405190810160405280929190818152602001828054611484906121c0565b80156114d15780601f106114a6576101008083540402835291602001916114d1565b820191906000526020600020905b8154815290600101906020018083116114b457829003601f168201915b5050505050908060020180546114e6906121c0565b80601f0160208091040260200160405190810160405280929190818152602001828054611512906121c0565b801561155f5780601f106115345761010080835404028352916020019161155f565b820191906000526020600020905b81548152906001019060200180831161154257829003601f168201915b505050505090806003018054611574906121c0565b80601f01602080910402602001604051908101604052809291908181526020018280546115a0906121c0565b80156115ed5780601f106115c2576101008083540402835291602001916115ed565b820191906000526020600020905b8154815290600101906020018083116115d057829003601f168201915b5050505050905083565b60008160405160200161160a919061217a565b60405160208183030381529060405280519060200120600084604051611630919061217a565b90815260200160405180910390206000016040516020016116519190612598565b6040516020818303038152906040528051906020012014905092915050565b60015481565b8280548282559060005260206000209081019282156116ef579160200282015b828111156116ee5782518260006101000a81548173ffffffffffffffffffffffffffffffffffffffff021916908373ffffffffffffffffffffffffffffffffffffffff16021790555091602001919060010190611696565b5b5090506116fc91906117db565b5090565b50805461170c906121c0565b6000825580601f1061171e575061173d565b601f01602090049060005260206000209081019061173c91906117db565b5b50565b508054600082559060005260206000209081019061175e91906117db565b50565b8280548282559060005260206000209081019282156117a25760005260206000209182015b828111156117a1578254825591600101919060010190611786565b5b5090506117af91906117db565b5090565b6040518060800160405280606081526020016060815260200160608152602001606081525090565b5b808211156117f45760008160009055506001016117dc565b5090565b6000604051905090565b600080fd5b600080fd5b600080fd5b600080fd5b6000601f19601f8301169050919050565b7f4e487b7100000000000000000000000000000000000000000000000000000000600052604160045260246000fd5b61185f82611816565b810181811067ffffffffffffffff8211171561187e5761187d611827565b5b80604052505050565b60006118916117f8565b905061189d8282611856565b919050565b600067ffffffffffffffff8211156118bd576118bc611827565b5b6118c682611816565b9050602081019050919050565b82818337600083830152505050565b60006118f56118f0846118a2565b611887565b90508281526020810184848401111561191157611910611811565b5b61191c8482856118d3565b509392505050565b600082601f8301126119395761193861180c565b5b81356119498482602086016118e2565b91505092915050565b60008060006060848603121561196b5761196a611802565b5b600084013567ffffffffffffffff81111561198957611988611807565b5b61199586828701611924565b935050602084013567ffffffffffffffff8111156119b6576119b5611807565b5b6119c286828701611924565b925050604084013567ffffffffffffffff8111156119e3576119e2611807565b5b6119ef86828701611924565b9150509250925092565b600073ffffffffffffffffffffffffffffffffffffffff82169050919050565b6000611a24826119f9565b9050919050565b611a3481611a19565b8114611a3f57600080fd5b50565b600081359050611a5181611a2b565b92915050565b60008060408385031215611a6e57611a6d611802565b5b600083013567ffffffffffffffff811115611a8c57611a8b611807565b5b611a9885828601611924565b9250506020611aa985828601611a42565b9150509250929050565b600060208284031215611ac957611ac8611802565b5b600082013567ffffffffffffffff811115611ae757611ae6611807565b5b611af384828501611924565b91505092915050565b600081519050919050565b600082825260208201905092915050565b60005b83811015611b36578082015181840152602081019050611b1b565b60008484015250505050565b6000611b4d82611afc565b611b578185611b07565b9350611b67818560208601611b18565b611b7081611816565b840191505092915050565b60006020820190508181036000830152611b958184611b42565b905092915050565b60008115159050919050565b611bb281611b9d565b82525050565b6000602082019050611bcd6000830184611ba9565b92915050565b60008060408385031215611bea57611be9611802565b5b600083013567ffffffffffffffff811115611c0857611c07611807565b5b611c1485828601611924565b925050602083013567ffffffffffffffff811115611c3557611c34611807565b5b611c4185828601611924565b9150509250929050565b600081519050919050565b600082825260208201905092915050565b6000819050602082019050919050565b611c8081611a19565b82525050565b6000611c928383611c77565b60208301905092915050565b6000602082019050919050565b6000611cb682611c4b565b611cc08185611c56565b9350611ccb83611c67565b8060005b83811015611cfc578151611ce38882611c86565b9750611cee83611c9e565b925050600181019050611ccf565b5085935050505092915050565b60006020820190508181036000830152611d238184611cab565b905092915050565b600081519050919050565b600082825260208201905092915050565b6000819050602082019050919050565b600082825260208201905092915050565b6000611d7382611afc565b611d7d8185611d57565b9350611d8d818560208601611b18565b611d9681611816565b840191505092915050565b6000611dad8383611d68565b905092915050565b6000602082019050919050565b6000611dcd82611d2b565b611dd78185611d36565b935083602082028501611de985611d47565b8060005b85811015611e255784840389528151611e068582611da1565b9450611e1183611db5565b925060208a01995050600181019050611ded565b50829750879550505050505092915050565b60006020820190508181036000830152611e518184611dc2565b905092915050565b600081519050919050565b600082825260208201905092915050565b6000819050602082019050919050565b600082825260208201905092915050565b6000611ea182611c4b565b611eab8185611e85565b9350611eb683611c67565b8060005b83811015611ee7578151611ece8882611c86565b9750611ed983611c9e565b925050600181019050611eba565b5085935050505092915050565b60006080830160008301518482036000860152611f118282611d68565b91505060208301518482036020860152611f2b8282611e96565b91505060408301518482036040860152611f458282611d68565b91505060608301518482036060860152611f5f8282611d68565b9150508091505092915050565b6000611f788383611ef4565b905092915050565b6000602082019050919050565b6000611f9882611e59565b611fa28185611e64565b935083602082028501611fb485611e75565b8060005b85811015611ff05784840389528151611fd18582611f6c565b9450611fdc83611f80565b925060208a01995050600181019050611fb8565b50829750879550505050505092915050565b6000602082019050818103600083015261201c8184611f8d565b905092915050565b600060808301600083015184820360008601526120418282611d68565b9150506020830151848203602086015261205b8282611e96565b915050604083015184820360408601526120758282611d68565b9150506060830151848203606086015261208f8282611d68565b9150508091505092915050565b600060208201905081810360008301526120b68184612024565b905092915050565b600060608201905081810360008301526120d88186611b42565b905081810360208301526120ec8185611b42565b905081810360408301526121008184611b42565b9050949350505050565b6000819050919050565b61211d8161210a565b82525050565b60006020820190506121386000830184612114565b92915050565b600081905092915050565b600061215482611afc565b61215e818561213e565b935061216e818560208601611b18565b80840191505092915050565b60006121868284612149565b915081905092915050565b7f4e487b7100000000000000000000000000000000000000000000000000000000600052602260045260246000fd5b600060028204905060018216806121d857607f821691505b6020821081036121eb576121ea612191565b5b50919050565b60008190508160005260206000209050919050565b60006020601f8301049050919050565b600082821b905092915050565b6000600883026122537fffffffffffffffffffffffffffffffffffffffffffffffffffffffffffffffff82612216565b61225d8683612216565b95508019841693508086168417925050509392505050565b6000819050919050565b600061229a6122956122908461210a565b612275565b61210a565b9050919050565b6000819050919050565b6122b48361227f565b6122c86122c0826122a1565b848454612223565b825550505050565b600090565b6122dd6122d0565b6122e88184846122ab565b505050565b5b8181101561230c576123016000826122d5565b6001810190506122ee565b5050565b601f82111561235157612322816121f1565b61232b84612206565b8101602085101561233a578190505b61234e61234685612206565b8301826122ed565b50505b505050565b600082821c905092915050565b600061237460001984600802612356565b1980831691505092915050565b600061238d8383612363565b9150826002028217905092915050565b6123a682611afc565b67ffffffffffffffff8111156123bf576123be611827565b5b6123c982546121c0565b6123d4828285612310565b600060209050601f83116001811461240757600084156123f5578287015190505b6123ff8582612381565b865550612467565b601f198416612415866121f1565b60005b8281101561243d57848901518255600182019150602085019450602081019050612418565b8683101561245a5784890151612456601f891682612363565b8355505b6001600288020188555050505b505050505050565b7f4e487b7100000000000000000000000000000000000000000000000000000000600052601160045260246000fd5b60006124a98261210a565b91507fffffffffffffffffffffffffffffffffffffffffffffffffffffffffffffffff82036124db576124da61246f565b5b600182019050919050565b7f4e487b7100000000000000000000000000000000000000000000000000000000600052603260045260246000fd5b60008154612522816121c0565b61252c818661213e565b94506001821660008114612547576001811461255c5761258f565b60ff198316865281151582028601935061258f565b612565856121f1565b60005b8381101561258757815481890152600182019150602081019050612568565b838801955050505b50505092915050565b60006125a48284612515565b915081905092915050565b60006125ba8261210a565b9150600082036125cd576125cc61246f565b5b600182039050919050565b6000819050919050565b6125f36125ee8261210a565b6125d8565b82525050565b600061260582846125e2565b60208201915081905092915050565b600061261f8261210a565b915061262a8361210a565b92508282039050818111156126425761264161246f565b5b92915050565b7f4e487b7100000000000000000000000000000000000000000000000000000000600052603160045260246000fd5b600081549050612686816121c0565b9050919050565b81810361269b575050612773565b6126a482612677565b67ffffffffffffffff8111156126bd576126bc611827565b5b6126c782546121c0565b6126d2828285612310565b6000601f83116001811461270157600084156126ef578287015490505b6126f98582612381565b86555061276c565b601f19841661270f876121f1565b965061271a866121f1565b60005b828110156127425784890154825560018201915060018501945060208101905061271d565b8683101561275f578489015461275b601f891682612363565b8355505b6001600288020188555050505b5050505050505b56fea2646970667358221220e6a04b6c2153cc2fac81113da267b117911fe3afcfd74f17571e749fe7defe6164736f6c634300081b0033",
  "linkReferences": {},
  "deployedLinkReferences": {}
}